{
  "address": "0xA442dE04783E5508a86B1E036B5aa1023B01217d",
  "abi": [
    {
      "inputs": [
        {
          "internalType": "contract IERC20WithEIP3009",
          "name": "_rootToken",
          "type": "address"
        },
        {
          "internalType": "contract IRootChainManager",
          "name": "_rootChainManager",
          "type": "address"
        },
        {
          "internalType": "address",
          "name": "_predicateContract",
          "type": "address"
        },
        {
          "internalType": "address",
          "name": "owner",
          "type": "address"
        },
        {
          "internalType": "uint256",
          "name": "_stakeAmount",
          "type": "uint256"
        }
      ],
      "stateMutability": "nonpayable",
      "type": "constructor"
    },
    {
      "anonymous": false,
      "inputs": [
        {
          "indexed": true,
          "internalType": "address",
          "name": "relayer",
          "type": "address"
        },
        {
          "indexed": true,
          "internalType": "address",
          "name": "depositor",
          "type": "address"
        },
        {
          "indexed": false,
          "internalType": "uint256",
          "name": "amount",
          "type": "uint256"
        },
        {
          "indexed": false,
          "internalType": "uint256",
          "name": "fee",
          "type": "uint256"
        }
      ],
      "name": "DepositRelayed",
      "type": "event"
    },
    {
      "anonymous": false,
      "inputs": [
        {
          "indexed": true,
          "internalType": "address",
          "name": "relay",
          "type": "address"
        },
        {
          "indexed": false,
          "internalType": "address",
          "name": "sender",
          "type": "address"
        }
      ],
      "name": "DeregisterRelay",
      "type": "event"
    },
    {
      "anonymous": false,
      "inputs": [
        {
          "indexed": true,
          "internalType": "address",
          "name": "previousOwner",
          "type": "address"
        },
        {
          "indexed": true,
          "internalType": "address",
          "name": "newOwner",
          "type": "address"
        }
      ],
      "name": "OwnershipTransferred",
      "type": "event"
    },
    {
      "anonymous": false,
      "inputs": [
        {
          "indexed": true,
          "internalType": "address",
          "name": "relay",
          "type": "address"
        },
        {
          "indexed": false,
          "internalType": "string",
          "name": "url",
          "type": "string"
        }
      ],
      "name": "RegisterRelay",
      "type": "event"
    },
    {
      "inputs": [],
      "name": "DEPOSIT_TYPEHASH",
      "outputs": [
        {
          "internalType": "bytes32",
          "name": "",
          "type": "bytes32"
        }
      ],
      "stateMutability": "view",
      "type": "function"
    },
    {
      "inputs": [],
      "name": "DOMAIN_TYPEHASH",
      "outputs": [
        {
          "internalType": "bytes32",
          "name": "",
          "type": "bytes32"
        }
      ],
      "stateMutability": "view",
      "type": "function"
    },
    {
      "inputs": [],
      "name": "NAME",
      "outputs": [
        {
          "internalType": "string",
          "name": "",
          "type": "string"
        }
      ],
      "stateMutability": "view",
      "type": "function"
    },
    {
      "inputs": [
        {
          "internalType": "address",
          "name": "relay",
          "type": "address"
        }
      ],
      "name": "adminDeregister",
      "outputs": [],
      "stateMutability": "nonpayable",
      "type": "function"
    },
    {
      "inputs": [
        {
          "internalType": "address",
          "name": "to",
          "type": "address"
        },
        {
          "internalType": "uint256",
          "name": "amount",
          "type": "uint256"
        }
      ],
      "name": "claimFees",
      "outputs": [],
      "stateMutability": "nonpayable",
      "type": "function"
    },
    {
      "inputs": [
        {
          "internalType": "address",
          "name": "",
          "type": "address"
        }
      ],
      "name": "collectedFees",
      "outputs": [
        {
          "internalType": "uint256",
          "name": "",
          "type": "uint256"
        }
      ],
      "stateMutability": "view",
      "type": "function"
    },
    {
      "inputs": [
        {
          "internalType": "address",
          "name": "from",
          "type": "address"
        },
        {
          "internalType": "address",
          "name": "depositRecipient",
          "type": "address"
        },
        {
          "internalType": "uint256",
          "name": "totalValue",
          "type": "uint256"
        },
        {
          "internalType": "uint256",
          "name": "fee",
          "type": "uint256"
        },
        {
          "internalType": "uint256",
          "name": "validBefore",
          "type": "uint256"
        },
        {
          "internalType": "bytes32",
          "name": "nonce",
          "type": "bytes32"
        },
        {
          "internalType": "uint256",
          "name": "maxBlock",
          "type": "uint256"
        },
        {
          "components": [
            {
              "internalType": "uint8",
              "name": "v",
              "type": "uint8"
            },
            {
              "internalType": "bytes32",
              "name": "r",
              "type": "bytes32"
            },
            {
              "internalType": "bytes32",
              "name": "s",
              "type": "bytes32"
            }
          ],
          "internalType": "struct DepositRouter.Sig",
          "name": "receiveSig",
          "type": "tuple"
        },
        {
          "components": [
            {
              "internalType": "uint8",
              "name": "v",
              "type": "uint8"
            },
            {
              "internalType": "bytes32",
              "name": "r",
              "type": "bytes32"
            },
            {
              "internalType": "bytes32",
              "name": "s",
              "type": "bytes32"
            }
          ],
          "internalType": "struct DepositRouter.Sig",
          "name": "depositSig",
          "type": "tuple"
        }
      ],
      "name": "deposit",
      "outputs": [],
      "stateMutability": "nonpayable",
      "type": "function"
    },
    {
      "inputs": [
        {
          "internalType": "address",
          "name": "",
          "type": "address"
        }
      ],
      "name": "depositNonces",
      "outputs": [
        {
          "internalType": "uint256",
          "name": "",
          "type": "uint256"
        }
      ],
      "stateMutability": "view",
      "type": "function"
    },
    {
      "inputs": [],
      "name": "deregister",
      "outputs": [],
      "stateMutability": "nonpayable",
      "type": "function"
    },
    {
      "inputs": [],
      "name": "domainSeparator",
      "outputs": [
        {
          "internalType": "bytes32",
          "name": "",
          "type": "bytes32"
        }
      ],
      "stateMutability": "view",
      "type": "function"
    },
    {
      "inputs": [],
      "name": "getRelayers",
      "outputs": [
        {
          "internalType": "address[]",
          "name": "",
          "type": "address[]"
        }
      ],
      "stateMutability": "view",
      "type": "function"
    },
    {
      "inputs": [],
      "name": "getRelayersWithUrls",
      "outputs": [
        {
          "internalType": "bytes[]",
          "name": "relayerInfo",
          "type": "bytes[]"
        }
      ],
      "stateMutability": "view",
      "type": "function"
    },
    {
      "inputs": [
        {
          "internalType": "address",
          "name": "maybeRelay",
          "type": "address"
        }
      ],
      "name": "isRegistered",
      "outputs": [
        {
          "internalType": "bool",
          "name": "",
          "type": "bool"
        }
      ],
      "stateMutability": "view",
      "type": "function"
    },
    {
      "inputs": [],
      "name": "owner",
      "outputs": [
        {
          "internalType": "address",
          "name": "",
          "type": "address"
        }
      ],
      "stateMutability": "view",
      "type": "function"
    },
    {
      "inputs": [],
      "name": "predicateContract",
      "outputs": [
        {
          "internalType": "address",
          "name": "",
          "type": "address"
        }
      ],
      "stateMutability": "view",
      "type": "function"
    },
    {
      "inputs": [
        {
          "internalType": "string",
          "name": "url",
          "type": "string"
        }
      ],
      "name": "register",
      "outputs": [],
      "stateMutability": "payable",
      "type": "function"
    },
    {
      "inputs": [
        {
          "internalType": "address",
          "name": "",
          "type": "address"
        }
      ],
      "name": "relayerStake",
      "outputs": [
        {
          "internalType": "uint256",
          "name": "",
          "type": "uint256"
        }
      ],
      "stateMutability": "view",
      "type": "function"
    },
    {
      "inputs": [
        {
          "internalType": "address",
          "name": "",
          "type": "address"
        }
      ],
      "name": "relayerUrl",
      "outputs": [
        {
          "internalType": "string",
          "name": "",
          "type": "string"
        }
      ],
      "stateMutability": "view",
      "type": "function"
    },
    {
      "inputs": [],
      "name": "renounceOwnership",
      "outputs": [],
      "stateMutability": "nonpayable",
      "type": "function"
    },
    {
      "inputs": [],
      "name": "rootChainManager",
      "outputs": [
        {
          "internalType": "contract IRootChainManager",
          "name": "",
          "type": "address"
        }
      ],
      "stateMutability": "view",
      "type": "function"
    },
    {
      "inputs": [],
      "name": "rootToken",
      "outputs": [
        {
          "internalType": "contract IERC20WithEIP3009",
          "name": "",
          "type": "address"
        }
      ],
      "stateMutability": "view",
      "type": "function"
    },
    {
      "inputs": [
        {
          "internalType": "string",
          "name": "url",
          "type": "string"
        }
      ],
      "name": "setRelayerUrl",
      "outputs": [],
      "stateMutability": "nonpayable",
      "type": "function"
    },
    {
      "inputs": [
        {
          "internalType": "uint256",
          "name": "newAmount",
          "type": "uint256"
        }
      ],
      "name": "setStakeAmount",
      "outputs": [],
      "stateMutability": "nonpayable",
      "type": "function"
    },
    {
      "inputs": [],
      "name": "stakeAmount",
      "outputs": [
        {
          "internalType": "uint256",
          "name": "",
          "type": "uint256"
        }
      ],
      "stateMutability": "view",
      "type": "function"
    },
    {
      "inputs": [
        {
          "internalType": "address",
          "name": "newOwner",
          "type": "address"
        }
      ],
      "name": "transferOwnership",
      "outputs": [],
      "stateMutability": "nonpayable",
      "type": "function"
    }
  ],
  "transactionHash": "0xa102c64363888ac918da07f1e57001aa526da95d246f198fa9b92317ddefb0f9",
  "args": [
    "0xA0b86991c6218b36c1d19D4a2e9Eb0cE3606eB48",
    "0xA0c68C638235ee32657e8f720a23ceC1bFc77C77",
    "0x40ec5B33f54e0E8A33A975908C5BA1c14e5BbbDf",
    "0x1C35E441b21E528Dd8385Fd41d1578bE18E247D3",
    "10000000000000000"
  ],
  "solcInputHash": "3e7e21638f0e389b0dd5dcfb44a4feca",
  "bytecode": "0x60806040523480156200001157600080fd5b50604051620022983803806200229883398101604081905262000034916200030c565b6200003f33620001be565b60018055600380546001600160a01b038781166001600160a01b031992831681179093556002805488831690841617905560048054918716919092168117825560405163095ea7b360e01b815291820152600019602482015263095ea7b390604401602060405180830381600087803b158015620000bc57600080fd5b505af1158015620000d1573d6000803e3d6000fd5b505050506040513d601f19601f82011682018060405250810190620000f79190620002e3565b50600681905562000108826200020e565b5050604080518082018252601981527f506f6c796d61726b6574204465706f73697420526f757465720000000000000060209182015281517f8cad95687ba82c2ce50e74f7b754645e5117c3a5bec8151c0726d5857980a866818301527f0e1f681f0204effccee965e5545acd3aea2ecccaed49392914c1601d547080d681840152466060820152306080808301919091528351808303909101815260a09091019092528151910120600c555062000395915050565b600080546001600160a01b038381166001600160a01b0319831681178455604051919092169283917f8be0079c531659141344cd1fd0a4f28419497f9722a3daafe3b4186f6b6457e09190a35050565b6000546001600160a01b031633146200026e5760405162461bcd60e51b815260206004820181905260248201527f4f776e61626c653a2063616c6c6572206973206e6f7420746865206f776e657260448201526064015b60405180910390fd5b6001600160a01b038116620002d55760405162461bcd60e51b815260206004820152602660248201527f4f776e61626c653a206e6577206f776e657220697320746865207a65726f206160448201526564647265737360d01b606482015260840162000265565b620002e081620001be565b50565b600060208284031215620002f5578081fd5b8151801515811462000305578182fd5b9392505050565b600080600080600060a0868803121562000324578081fd5b855162000331816200037f565b602087015190955062000344816200037f565b604087015190945062000357816200037f565b60608701519093506200036a816200037f565b80925050608086015190509295509295909350565b6001600160a01b0381168114620002e057600080fd5b611ef380620003a56000396000f3fe6080604052600436106101965760003560e01c80638da5cb5b116100e1578063c3c5a5471161008a578063f2c298be11610064578063f2c298be146104d6578063f2fde38b146104e9578063f698da2514610509578063f961ade31461051f57600080fd5b8063c3c5a54714610464578063ed062b2c14610494578063ef7b8bf8146104b657600080fd5b8063aff5edb1116100bb578063aff5edb11461040f578063bd07018d14610424578063be09b8b51461044457600080fd5b80638da5cb5b1461036e57806392d768951461038c578063a3f4df7e146103b957600080fd5b806348825e941161014357806360c7dc471161011d57806360c7dc47146103235780636412932b14610339578063715018a61461035957600080fd5b806348825e94146102af57806357e6a5b6146102e35780635c46ff991461030357600080fd5b80631f2d0065116101745780631f2d00651461023957806320606b701461025957806343808c501461028d57600080fd5b8063179ff4b21461019b57806319860e03146101c65780631cead9a7146101fe575b600080fd5b3480156101a757600080fd5b506101b061054c565b6040516101bd9190611d38565b60405180910390f35b3480156101d257600080fd5b506004546101e6906001600160a01b031681565b6040516001600160a01b0390911681526020016101bd565b34801561020a57600080fd5b5061022b610219366004611a7a565b60056020526000908152604090205481565b6040519081526020016101bd565b34801561024557600080fd5b506003546101e6906001600160a01b031681565b34801561026557600080fd5b5061022b7f8cad95687ba82c2ce50e74f7b754645e5117c3a5bec8151c0726d5857980a86681565b34801561029957600080fd5b506102ad6102a8366004611bd0565b61055d565b005b3480156102bb57600080fd5b5061022b7f990b6e436815e63cad01cb5170034992c7c2c7fdf40c094dcbcff7d9fa1e87ef81565b3480156102ef57600080fd5b506102ad6102fe366004611a94565b6105c1565b34801561030f57600080fd5b506102ad61031e366004611b1a565b6108c2565b34801561032f57600080fd5b5061022b60065481565b34801561034557600080fd5b506102ad610354366004611b63565b610a29565b34801561036557600080fd5b506102ad610aeb565b34801561037a57600080fd5b506000546001600160a01b03166101e6565b34801561039857600080fd5b5061022b6103a7366004611a7a565b600a6020526000908152604090205481565b3480156103c557600080fd5b506104026040518060400160405280601981526020017f506f6c796d61726b6574204465706f73697420526f757465720000000000000081525081565b6040516101bd9190611e15565b34801561041b57600080fd5b506102ad610b51565b34801561043057600080fd5b506002546101e6906001600160a01b031681565b34801561045057600080fd5b506102ad61045f366004611a7a565b610b5a565b34801561047057600080fd5b5061048461047f366004611a7a565b610bc0565b60405190151581526020016101bd565b3480156104a057600080fd5b506104a9610be2565b6040516101bd9190611d85565b3480156104c257600080fd5b506104026104d1366004611a7a565b610ce8565b6102ad6104e4366004611b63565b610d82565b3480156104f557600080fd5b506102ad610504366004611a7a565b611045565b34801561051557600080fd5b5061022b600c5481565b34801561052b57600080fd5b5061022b61053a366004611a7a565b600b6020526000908152604090205481565b60606105586007611124565b905090565b6000546001600160a01b031633146105bc5760405162461bcd60e51b815260206004820181905260248201527f4f776e61626c653a2063616c6c6572206973206e6f7420746865206f776e657260448201526064015b60405180910390fd5b600655565b336000908152600860205260409020546106435760405162461bcd60e51b815260206004820152603160248201527f4465706f736974526f757465723a3a6465706f7369743a2072656c617965722060448201527f6973206e6f74207265676973746572656400000000000000000000000000000060648201526084016105b3565b824311156106bb576040805162461bcd60e51b81526020600482015260248101919091527f4465706f736974526f757465723a3a6465706f7369743a2063616e6e6f74207260448201527f656c6179207472616e73616374696f6e206166746572206d617820626c6f636b60648201526084016105b3565b6106c88989888685611138565b6003546001600160a01b031663ef55bec68a308a60008a8a6106ed60208b018b611be8565b604080517fffffffff0000000000000000000000000000000000000000000000000000000060e08b901b1681526001600160a01b03988916600482015297909616602488015260448701949094526064860192909252608485015260a484015260ff1660c4830152602086013560e483015285013561010482015261012401600060405180830381600087803b15801561078657600080fd5b505af115801561079a573d6000803e3d6000fd5b50505050600086886107ac9190611e40565b60025460035460408051602080820186905282518083039091018152818301928390527fe3dec8fb000000000000000000000000000000000000000000000000000000009092529394506001600160a01b039283169363e3dec8fb93610819938f93911691604401611c54565b600060405180830381600087803b15801561083357600080fd5b505af1158015610847573d6000803e3d6000fd5b505033600090815260056020526040812080548b945090925061086b908490611e28565b909155505060408051828152602081018990526001600160a01b038c169133917fe017ffcfad08938f084f69e5f6c902c71f014a4e966d961d3a2d21c4b23e28ee910160405180910390a350505050505050505050565b3360009081526005602052604090205481111561096e5760405162461bcd60e51b8152602060048201526044602482018190527f4465706f736974526f757465723a3a636c61696d466565733a2063616e6e6f74908201527f20636c61696d206d6f72652066656573207468616e20746865206163636f757460648201527f2068617300000000000000000000000000000000000000000000000000000000608482015260a4016105b3565b33600090815260056020526040908190208054839003905560035490517fa9059cbb0000000000000000000000000000000000000000000000000000000081526001600160a01b038481166004830152602482018490529091169063a9059cbb90604401602060405180830381600087803b1580156109ec57600080fd5b505af1158015610a00573d6000803e3d6000fd5b505050506040513d601f19601f82011682018060405250810190610a249190611b43565b505050565b33600090815260086020526040902054610ad15760405162461bcd60e51b815260206004820152604860248201527f4465706f736974526f757465723a3a73657452656c6179657255726c3a20726560448201527f6c6179206d757374206265207265676973746572656420746f206368616e676560648201527f206974732075726c000000000000000000000000000000000000000000000000608482015260a4016105b3565b336000908152600960205260409020610a24908383611978565b6000546001600160a01b03163314610b455760405162461bcd60e51b815260206004820181905260248201527f4f776e61626c653a2063616c6c6572206973206e6f7420746865206f776e657260448201526064016105b3565b610b4f60006112ea565b565b610b4f33611352565b6000546001600160a01b03163314610bb45760405162461bcd60e51b815260206004820181905260248201527f4f776e61626c653a2063616c6c6572206973206e6f7420746865206f776e657260448201526064016105b3565b610bbd81611352565b50565b6001600160a01b03811660009081526008602052604081205415155b92915050565b60606000610bf0600761158f565b90508067ffffffffffffffff811115610c1957634e487b7160e01b600052604160045260246000fd5b604051908082528060200260200182016040528015610c4c57816020015b6060815260200190600190039081610c375790505b50915060005b81811015610ce3576000610c67600783611599565b6001600160a01b0381166000908152600960209081526040918290209151929350610c959284929101611c80565b604051602081830303815290604052848381518110610cc457634e487b7160e01b600052603260045260246000fd5b6020026020010181905250508080610cdb90611e8c565b915050610c52565b505090565b60096020526000908152604090208054610d0190611e57565b80601f0160208091040260200160405190810160405280929190818152602001828054610d2d90611e57565b8015610d7a5780601f10610d4f57610100808354040283529160200191610d7a565b820191906000526020600020905b815481529060010190602001808311610d5d57829003601f168201915b505050505081565b60026001541415610dd55760405162461bcd60e51b815260206004820152601f60248201527f5265656e7472616e637947756172643a207265656e7472616e742063616c6c0060448201526064016105b3565b60026001553360009081526008602052604090205415610e5d5760405162461bcd60e51b815260206004820152603160248201527f4465706f736974526f757465723a3a72656769737465723a2072656c6179206160448201527f6c7265616479207265676973746572656400000000000000000000000000000060648201526084016105b3565b600654341015610ed55760405162461bcd60e51b815260206004820152603160248201527f4465706f736974526f757465723a72656769737465723a20696e73756666696360448201527f69656e74207374616b6520616d6f756e7400000000000000000000000000000060648201526084016105b3565b600654336000908152600a602052604081208054909190610ef7908490611e28565b90915550610f0890506007336115a5565b50336000908152600960205260409020610f23908383611978565b50600654341115610ffa576006546000903390610f409034611e40565b604051600081818185875af1925050503d8060008114610f7c576040519150601f19603f3d011682016040523d82523d6000602084013e610f81565b606091505b5050905080610ff85760405162461bcd60e51b815260206004820152602660248201527f4465706f736974526f757465723a72656769737465723a20726566756e64206660448201527f61696c65642e000000000000000000000000000000000000000000000000000060648201526084016105b3565b505b336001600160a01b03167fb16283b75da46a2ae7a2aeda9af8df5483014d215c16d77175f2d196255ae7b68383604051611035929190611de6565b60405180910390a2505060018055565b6000546001600160a01b0316331461109f5760405162461bcd60e51b815260206004820181905260248201527f4f776e61626c653a2063616c6c6572206973206e6f7420746865206f776e657260448201526064016105b3565b6001600160a01b03811661111b5760405162461bcd60e51b815260206004820152602660248201527f4f776e61626c653a206e6577206f776e657220697320746865207a65726f206160448201527f646472657373000000000000000000000000000000000000000000000000000060648201526084016105b3565b610bbd816112ea565b60606000611131836115ba565b9392505050565b6001600160a01b0385166000908152600b6020526040812080547f990b6e436815e63cad01cb5170034992c7c2c7fdf40c094dcbcff7d9fa1e87ef9133918891889188918761118683611e8c565b909155506040805160208101979097526001600160a01b0395861690870152939092166060850152608084015260a083015260c082015260e0016040516020818303038152906040528051906020012090506000600c54826040516020016112209291907f190100000000000000000000000000000000000000000000000000000000000081526002810192909252602282015260420190565b60408051601f198184030181529190528051602091820120915061125b90829061124c90860186611be8565b85602001358660400135611616565b6001600160a01b0316876001600160a01b0316146112e15760405162461bcd60e51b815260206004820152603e60248201527f4465706f736974526f757465723a3a5f7665726966794465706f73697453696760448201527f3a20756e61626c6520746f20766572696679206465706f73697420736967000060648201526084016105b3565b50505050505050565b600080546001600160a01b038381167fffffffffffffffffffffffff0000000000000000000000000000000000000000831681178455604051919092169283917f8be0079c531659141344cd1fd0a4f28419497f9722a3daafe3b4186f6b6457e09190a35050565b600260015414156113a55760405162461bcd60e51b815260206004820152601f60248201527f5265656e7472616e637947756172643a207265656e7472616e742063616c6c0060448201526064016105b3565b60026001556001600160a01b0381166000908152600860205260409020546114355760405162461bcd60e51b815260206004820152603a60248201527f4465706f736974526f757465723a3a646572656769737465723a2072656c617960448201527f206973206e6f7420616c7265616479207265676973746572656400000000000060648201526084016105b3565b6001600160a01b0381166000908152600a60205260408120805491905561145d6007836117bf565b506001600160a01b038216600090815260096020526040812061147f916119fc565b6000826001600160a01b03168260405160006040518083038185875af1925050503d80600081146114cc576040519150601f19603f3d011682016040523d82523d6000602084013e6114d1565b606091505b50509050806115485760405162461bcd60e51b815260206004820152602e60248201527f4465706f736974526f757465723a3a646572656769737465723a20726566756e60448201527f64207374616b65206661696c656400000000000000000000000000000000000060648201526084016105b3565b6040513381526001600160a01b038416907f9713c9d5d29d52252ce91902b2eb466a55ebf1ee7e962795abca74391e6445369060200160405180910390a250506001805550565b6000610bdc825490565b600061113183836117d4565b6000611131836001600160a01b03841661180c565b60608160000180548060200260200160405190810160405280929190818152602001828054801561160a57602002820191906000526020600020905b8154815260200190600101908083116115f6575b50505050509050919050565b60007f7fffffffffffffffffffffffffffffff5d576e7357a4501ddfe92f46681b20a08211156116935760405162461bcd60e51b815260206004820152602260248201527f45434453413a20696e76616c6964207369676e6174757265202773272076616c604482015261756560f01b60648201526084016105b3565b8360ff16601b14806116a857508360ff16601c145b6116ff5760405162461bcd60e51b815260206004820152602260248201527f45434453413a20696e76616c6964207369676e6174757265202776272076616c604482015261756560f01b60648201526084016105b3565b6040805160008082526020820180845288905260ff871692820192909252606081018590526080810184905260019060a0016020604051602081039080840390855afa158015611753573d6000803e3d6000fd5b5050604051601f1901519150506001600160a01b0381166117b65760405162461bcd60e51b815260206004820152601860248201527f45434453413a20696e76616c6964207369676e6174757265000000000000000060448201526064016105b3565b95945050505050565b6000611131836001600160a01b03841661185b565b60008260000182815481106117f957634e487b7160e01b600052603260045260246000fd5b9060005260206000200154905092915050565b600081815260018301602052604081205461185357508154600181810184556000848152602080822090930184905584548482528286019093526040902091909155610bdc565b506000610bdc565b6000818152600183016020526040812054801561196e57600061187f600183611e40565b855490915060009061189390600190611e40565b90508181146119145760008660000182815481106118c157634e487b7160e01b600052603260045260246000fd5b90600052602060002001549050808760000184815481106118f257634e487b7160e01b600052603260045260246000fd5b6000918252602080832090910192909255918252600188019052604090208390555b855486908061193357634e487b7160e01b600052603160045260246000fd5b600190038181906000526020600020016000905590558560010160008681526020019081526020016000206000905560019350505050610bdc565b6000915050610bdc565b82805461198490611e57565b90600052602060002090601f0160209004810192826119a657600085556119ec565b82601f106119bf5782800160ff198235161785556119ec565b828001600101855582156119ec579182015b828111156119ec5782358255916020019190600101906119d1565b506119f8929150611a32565b5090565b508054611a0890611e57565b6000825580601f10611a18575050565b601f016020900490600052602060002090810190610bbd91905b5b808211156119f85760008155600101611a33565b80356001600160a01b0381168114611a5e57600080fd5b919050565b600060608284031215611a74578081fd5b50919050565b600060208284031215611a8b578081fd5b61113182611a47565b60008060008060008060008060006101a08a8c031215611ab2578485fd5b611abb8a611a47565b9850611ac960208b01611a47565b975060408a0135965060608a0135955060808a0135945060a08a0135935060c08a01359250611afb8b60e08c01611a63565b9150611b0b8b6101408c01611a63565b90509295985092959850929598565b60008060408385031215611b2c578182fd5b611b3583611a47565b946020939093013593505050565b600060208284031215611b54578081fd5b81518015158114611131578182fd5b60008060208385031215611b75578182fd5b823567ffffffffffffffff80821115611b8c578384fd5b818501915085601f830112611b9f578384fd5b813581811115611bad578485fd5b866020828501011115611bbe578485fd5b60209290920196919550909350505050565b600060208284031215611be1578081fd5b5035919050565b600060208284031215611bf9578081fd5b813560ff81168114611131578182fd5b60008151808452815b81811015611c2e57602081850181015186830182015201611c12565b81811115611c3f5782602083870101525b50601f01601f19169290920160200192915050565b60006001600160a01b038086168352808516602084015250606060408301526117b66060830184611c09565b6001600160a01b03831681526000602060408184015281845483600182811c915080831680611cb057607f831692505b858310811415611cce57634e487b7160e01b87526022600452602487fd5b6040880183905260608801818015611ced5760018114611cfe57611d28565b60ff19861682528782019650611d28565b60008b815260209020895b86811015611d2257815484820152908501908901611d09565b83019750505b50949a9950505050505050505050565b6020808252825182820181905260009190848201906040850190845b81811015611d795783516001600160a01b031683529284019291840191600101611d54565b50909695505050505050565b6000602080830181845280855180835260408601915060408160051b8701019250838701855b82811015611dd957603f19888603018452611dc7858351611c09565b94509285019290850190600101611dab565b5092979650505050505050565b60208152816020820152818360408301376000818301604090810191909152601f909201601f19160101919050565b6020815260006111316020830184611c09565b60008219821115611e3b57611e3b611ea7565b500190565b600082821015611e5257611e52611ea7565b500390565b600181811c90821680611e6b57607f821691505b60208210811415611a7457634e487b7160e01b600052602260045260246000fd5b6000600019821415611ea057611ea0611ea7565b5060010190565b634e487b7160e01b600052601160045260246000fdfea2646970667358221220e7d72c91f56d6e740f00f86e29635af521042356844d48417a694de9b7075b1664736f6c63430008040033",
  "devdoc": {
    "kind": "dev",
    "methods": {
      "deposit(address,address,uint256,uint256,uint256,bytes32,uint256,(uint8,bytes32,bytes32),(uint8,bytes32,bytes32))": {
        "details": "deposit funds to Matic. Since this is expected to be called in a meta transaction and `IRootChainManager.depositFor` relies on msg.sender, we transfer funds to this contract and then `depositFor` on this contract to the `depositRecipient` on matic. Note: RootChainManager has an `executeMetaTransaction` function but this method to deposit uses less gas.",
        "params": {
          "depositRecipient": "- the address to receive the deposit on matic",
          "depositSig": "- the EIP712 signature for the deposit",
          "fee": "- the fee to pay for gas.",
          "from": "- the address executing the deposit",
          "maxBlock": "- the maximum block that the deposit can be included in to prevent relayers      from waiting until transaction fee decreases to submit the transaction",
          "nonce": "- a unique random nonce for receiveWithAuthorization (NOT a sequential nonce see      https://eips.ethereum.org/EIPS/eip-3009#unique-random-nonce-instead-of-sequential-nonce)",
          "receiveSig": "- the EIP712 signature for `IERC20WithEIP3009.receiveWithAuthorization`",
          "totalValue": "- the amount to deposit",
          "validBefore": "- the deadline for executing the deposit"
        }
      },
      "owner()": {
        "details": "Returns the address of the current owner."
      },
      "renounceOwnership()": {
        "details": "Leaves the contract without owner. It will not be possible to call `onlyOwner` functions anymore. Can only be called by the current owner. NOTE: Renouncing ownership will leave the contract without an owner, thereby removing any functionality that is only available to the owner."
      },
      "transferOwnership(address)": {
        "details": "Transfers ownership of the contract to a new account (`newOwner`). Can only be called by the current owner."
      }
    },
    "version": 1
  },
  "userdoc": {
    "kind": "user",
    "methods": {},
    "version": 1
  },
  "storageLayout": {
    "storage": [
      {
        "astId": 7,
        "contract": "contracts/DepositRouter.sol:DepositRouter",
        "label": "_owner",
        "offset": 0,
        "slot": "0",
        "type": "t_address"
      },
      {
        "astId": 114,
        "contract": "contracts/DepositRouter.sol:DepositRouter",
        "label": "_status",
        "offset": 0,
        "slot": "1",
        "type": "t_uint256"
      },
      {
        "astId": 388,
        "contract": "contracts/DepositRouter.sol:DepositRouter",
        "label": "rootChainManager",
        "offset": 0,
        "slot": "2",
        "type": "t_contract(IRootChainManager)1635"
      },
      {
        "astId": 391,
        "contract": "contracts/DepositRouter.sol:DepositRouter",
        "label": "rootToken",
        "offset": 0,
        "slot": "3",
        "type": "t_contract(IERC20WithEIP3009)1623"
      },
      {
        "astId": 393,
        "contract": "contracts/DepositRouter.sol:DepositRouter",
        "label": "predicateContract",
        "offset": 0,
        "slot": "4",
        "type": "t_address"
      },
      {
        "astId": 397,
        "contract": "contracts/DepositRouter.sol:DepositRouter",
        "label": "collectedFees",
        "offset": 0,
        "slot": "5",
        "type": "t_mapping(t_address,t_uint256)"
      },
      {
        "astId": 399,
        "contract": "contracts/DepositRouter.sol:DepositRouter",
        "label": "stakeAmount",
        "offset": 0,
        "slot": "6",
        "type": "t_uint256"
      },
      {
        "astId": 402,
        "contract": "contracts/DepositRouter.sol:DepositRouter",
        "label": "_relayers",
        "offset": 0,
        "slot": "7",
        "type": "t_struct(AddressSet)1294_storage"
      },
      {
        "astId": 406,
        "contract": "contracts/DepositRouter.sol:DepositRouter",
        "label": "relayerUrl",
        "offset": 0,
        "slot": "9",
        "type": "t_mapping(t_address,t_string_storage)"
      },
      {
        "astId": 410,
        "contract": "contracts/DepositRouter.sol:DepositRouter",
        "label": "relayerStake",
        "offset": 0,
        "slot": "10",
        "type": "t_mapping(t_address,t_uint256)"
      },
      {
        "astId": 414,
        "contract": "contracts/DepositRouter.sol:DepositRouter",
        "label": "depositNonces",
        "offset": 0,
        "slot": "11",
        "type": "t_mapping(t_address,t_uint256)"
      },
      {
        "astId": 416,
        "contract": "contracts/DepositRouter.sol:DepositRouter",
        "label": "domainSeparator",
        "offset": 0,
        "slot": "12",
        "type": "t_bytes32"
      }
    ],
    "types": {
      "t_address": {
        "encoding": "inplace",
        "label": "address",
        "numberOfBytes": "20"
      },
      "t_array(t_bytes32)dyn_storage": {
        "base": "t_bytes32",
        "encoding": "dynamic_array",
        "label": "bytes32[]",
        "numberOfBytes": "32"
      },
      "t_bytes32": {
        "encoding": "inplace",
        "label": "bytes32",
        "numberOfBytes": "32"
      },
      "t_contract(IERC20WithEIP3009)1623": {
        "encoding": "inplace",
        "label": "contract IERC20WithEIP3009",
        "numberOfBytes": "20"
      },
      "t_contract(IRootChainManager)1635": {
        "encoding": "inplace",
        "label": "contract IRootChainManager",
        "numberOfBytes": "20"
      },
      "t_mapping(t_address,t_string_storage)": {
        "encoding": "mapping",
        "key": "t_address",
        "label": "mapping(address => string)",
        "numberOfBytes": "32",
        "value": "t_string_storage"
      },
      "t_mapping(t_address,t_uint256)": {
        "encoding": "mapping",
        "key": "t_address",
        "label": "mapping(address => uint256)",
        "numberOfBytes": "32",
        "value": "t_uint256"
      },
      "t_mapping(t_bytes32,t_uint256)": {
        "encoding": "mapping",
        "key": "t_bytes32",
        "label": "mapping(bytes32 => uint256)",
        "numberOfBytes": "32",
        "value": "t_uint256"
      },
      "t_string_storage": {
        "encoding": "bytes",
        "label": "string",
        "numberOfBytes": "32"
      },
      "t_struct(AddressSet)1294_storage": {
        "encoding": "inplace",
        "label": "struct EnumerableSet.AddressSet",
        "members": [
          {
            "astId": 1293,
            "contract": "contracts/DepositRouter.sol:DepositRouter",
            "label": "_inner",
            "offset": 0,
            "slot": "0",
            "type": "t_struct(Set)993_storage"
          }
        ],
        "numberOfBytes": "64"
      },
      "t_struct(Set)993_storage": {
        "encoding": "inplace",
        "label": "struct EnumerableSet.Set",
        "members": [
          {
            "astId": 988,
            "contract": "contracts/DepositRouter.sol:DepositRouter",
            "label": "_values",
            "offset": 0,
            "slot": "0",
            "type": "t_array(t_bytes32)dyn_storage"
          },
          {
            "astId": 992,
            "contract": "contracts/DepositRouter.sol:DepositRouter",
            "label": "_indexes",
            "offset": 0,
            "slot": "1",
            "type": "t_mapping(t_bytes32,t_uint256)"
          }
        ],
        "numberOfBytes": "64"
      },
      "t_uint256": {
        "encoding": "inplace",
        "label": "uint256",
        "numberOfBytes": "32"
      }
    }
  }
}