{
  "address": "0x60A4A8A77198D798D21d8D0299DDBbb9F24353B9",
  "abi": [
    {
      "inputs": [
        {
          "internalType": "contract IERC20WithEIP3009",
          "name": "_rootToken",
          "type": "address"
        },
        {
          "internalType": "contract IRootChainManager",
          "name": "_rootChainManager",
          "type": "address"
        },
        {
          "internalType": "address",
          "name": "_predicateContract",
          "type": "address"
        },
        {
          "internalType": "address",
          "name": "admin",
          "type": "address"
        },
        {
          "internalType": "address[]",
          "name": "relayers",
          "type": "address[]"
        }
      ],
      "stateMutability": "nonpayable",
      "type": "constructor"
    },
    {
      "anonymous": false,
      "inputs": [
        {
          "indexed": true,
          "internalType": "bytes32",
          "name": "role",
          "type": "bytes32"
        },
        {
          "indexed": true,
          "internalType": "bytes32",
          "name": "previousAdminRole",
          "type": "bytes32"
        },
        {
          "indexed": true,
          "internalType": "bytes32",
          "name": "newAdminRole",
          "type": "bytes32"
        }
      ],
      "name": "RoleAdminChanged",
      "type": "event"
    },
    {
      "anonymous": false,
      "inputs": [
        {
          "indexed": true,
          "internalType": "bytes32",
          "name": "role",
          "type": "bytes32"
        },
        {
          "indexed": true,
          "internalType": "address",
          "name": "account",
          "type": "address"
        },
        {
          "indexed": true,
          "internalType": "address",
          "name": "sender",
          "type": "address"
        }
      ],
      "name": "RoleGranted",
      "type": "event"
    },
    {
      "anonymous": false,
      "inputs": [
        {
          "indexed": true,
          "internalType": "bytes32",
          "name": "role",
          "type": "bytes32"
        },
        {
          "indexed": true,
          "internalType": "address",
          "name": "account",
          "type": "address"
        },
        {
          "indexed": true,
          "internalType": "address",
          "name": "sender",
          "type": "address"
        }
      ],
      "name": "RoleRevoked",
      "type": "event"
    },
    {
      "inputs": [],
      "name": "DEFAULT_ADMIN_ROLE",
      "outputs": [
        {
          "internalType": "bytes32",
          "name": "",
          "type": "bytes32"
        }
      ],
      "stateMutability": "view",
      "type": "function"
    },
    {
      "inputs": [],
      "name": "RELAYER_ROLE",
      "outputs": [
        {
          "internalType": "bytes32",
          "name": "",
          "type": "bytes32"
        }
      ],
      "stateMutability": "view",
      "type": "function"
    },
    {
      "inputs": [
        {
          "internalType": "address",
          "name": "to",
          "type": "address"
        },
        {
          "internalType": "uint256",
          "name": "amount",
          "type": "uint256"
        }
      ],
      "name": "claimFees",
      "outputs": [],
      "stateMutability": "nonpayable",
      "type": "function"
    },
    {
      "inputs": [
        {
          "internalType": "address",
          "name": "from",
          "type": "address"
        },
        {
          "internalType": "address",
          "name": "depositRecipient",
          "type": "address"
        },
        {
          "internalType": "uint256",
          "name": "totalValue",
          "type": "uint256"
        },
        {
          "internalType": "uint256",
          "name": "fee",
          "type": "uint256"
        },
        {
          "internalType": "uint256",
          "name": "validBefore",
          "type": "uint256"
        },
        {
          "internalType": "bytes32",
          "name": "nonce",
          "type": "bytes32"
        },
        {
          "components": [
            {
              "internalType": "uint8",
              "name": "v",
              "type": "uint8"
            },
            {
              "internalType": "bytes32",
              "name": "r",
              "type": "bytes32"
            },
            {
              "internalType": "bytes32",
              "name": "s",
              "type": "bytes32"
            }
          ],
          "internalType": "struct DepositRouter.Sig",
          "name": "receiveSig",
          "type": "tuple"
        }
      ],
      "name": "deposit",
      "outputs": [],
      "stateMutability": "nonpayable",
      "type": "function"
    },
    {
      "inputs": [
        {
          "internalType": "bytes32",
          "name": "role",
          "type": "bytes32"
        }
      ],
      "name": "getRoleAdmin",
      "outputs": [
        {
          "internalType": "bytes32",
          "name": "",
          "type": "bytes32"
        }
      ],
      "stateMutability": "view",
      "type": "function"
    },
    {
      "inputs": [
        {
          "internalType": "bytes32",
          "name": "role",
          "type": "bytes32"
        },
        {
          "internalType": "address",
          "name": "account",
          "type": "address"
        }
      ],
      "name": "grantRole",
      "outputs": [],
      "stateMutability": "nonpayable",
      "type": "function"
    },
    {
      "inputs": [
        {
          "internalType": "bytes32",
          "name": "role",
          "type": "bytes32"
        },
        {
          "internalType": "address",
          "name": "account",
          "type": "address"
        }
      ],
      "name": "hasRole",
      "outputs": [
        {
          "internalType": "bool",
          "name": "",
          "type": "bool"
        }
      ],
      "stateMutability": "view",
      "type": "function"
    },
    {
      "inputs": [],
      "name": "predicateContract",
      "outputs": [
        {
          "internalType": "address",
          "name": "",
          "type": "address"
        }
      ],
      "stateMutability": "view",
      "type": "function"
    },
    {
      "inputs": [
        {
          "internalType": "bytes32",
          "name": "role",
          "type": "bytes32"
        },
        {
          "internalType": "address",
          "name": "account",
          "type": "address"
        }
      ],
      "name": "renounceRole",
      "outputs": [],
      "stateMutability": "nonpayable",
      "type": "function"
    },
    {
      "inputs": [
        {
          "internalType": "bytes32",
          "name": "role",
          "type": "bytes32"
        },
        {
          "internalType": "address",
          "name": "account",
          "type": "address"
        }
      ],
      "name": "revokeRole",
      "outputs": [],
      "stateMutability": "nonpayable",
      "type": "function"
    },
    {
      "inputs": [],
      "name": "rootChainManager",
      "outputs": [
        {
          "internalType": "contract IRootChainManager",
          "name": "",
          "type": "address"
        }
      ],
      "stateMutability": "view",
      "type": "function"
    },
    {
      "inputs": [],
      "name": "rootToken",
      "outputs": [
        {
          "internalType": "contract IERC20WithEIP3009",
          "name": "",
          "type": "address"
        }
      ],
      "stateMutability": "view",
      "type": "function"
    },
    {
      "inputs": [
        {
          "internalType": "bytes4",
          "name": "interfaceId",
          "type": "bytes4"
        }
      ],
      "name": "supportsInterface",
      "outputs": [
        {
          "internalType": "bool",
          "name": "",
          "type": "bool"
        }
      ],
      "stateMutability": "view",
      "type": "function"
    }
  ],
  "transactionHash": "0xf8ab3527bb90a6c733eef25174e915ef453253a17dda2d8074056ebd43e6d71c",
  "args": [
    "0xA0b86991c6218b36c1d19D4a2e9Eb0cE3606eB48",
    "0xA0c68C638235ee32657e8f720a23ceC1bFc77C77",
    "0x40ec5B33f54e0E8A33A975908C5BA1c14e5BbbDf",
    "0x1C35E441b21E528Dd8385Fd41d1578bE18E247D3",
    [
      "0x1C35E441b21E528Dd8385Fd41d1578bE18E247D3"
    ]
  ],
  "solcInputHash": "4384428162cb0ff57a2f0901aba916b9",
  "bytecode": "0x60806040523480156200001157600080fd5b50604051620010de380380620010de83398101604081905262000034916200026f565b600280546001600160a01b038781166001600160a01b03199283168117909355600180548883169084161790556003805491871691909216811790915560405163095ea7b360e01b81526004810191909152600019602482015263095ea7b390604401602060405180830381600087803b158015620000b257600080fd5b505af1158015620000c7573d6000803e3d6000fd5b505050506040513d601f19601f82011682018060405250810190620000ed919062000246565b50620000fb60008362000184565b60005b81518110156200017857620001657fe2b7fb3b832174769106daebcfd6d1970523240dda11281102db9363b83b0dc460001b8383815181106200015157634e487b7160e01b600052603260045260246000fd5b60200260200101516200018460201b60201c565b62000170816200039d565b9050620000fe565b505050505050620003f4565b62000190828262000194565b5050565b6000828152602081815260408083206001600160a01b038516845290915290205460ff1662000190576000828152602081815260408083206001600160a01b03851684529091529020805460ff19166001179055620001f03390565b6001600160a01b0316816001600160a01b0316837f2f8788117e7eff1d82e926ec794901d17c78024a50270940304540a733656f0d60405160405180910390a45050565b80516200024181620003db565b919050565b60006020828403121562000258578081fd5b8151801515811462000268578182fd5b9392505050565b600080600080600060a0868803121562000287578081fd5b85516200029481620003db565b80955050602080870151620002a981620003db565b6040880151909550620002bc81620003db565b6060880151909450620002cf81620003db565b60808801519093506001600160401b0380821115620002ec578384fd5b818901915089601f83011262000300578384fd5b815181811115620003155762000315620003c5565b8060051b604051601f19603f830116810181811085821117156200033d576200033d620003c5565b604052828152858101935084860182860187018e10156200035c578788fd5b8795505b838610156200038957620003748162000234565b85526001959095019493860193860162000360565b508096505050505050509295509295909350565b6000600019821415620003be57634e487b7160e01b81526011600452602481fd5b5060010190565b634e487b7160e01b600052604160045260246000fd5b6001600160a01b0381168114620003f157600080fd5b50565b610cda80620004046000396000f3fe608060405234801561001057600080fd5b50600436106100df5760003560e01c80635c46ff991161008c578063a217fddf11610066578063a217fddf14610214578063bb1964301461021c578063bd07018d1461022f578063d547741f1461024257600080fd5b80635c46ff99146101a357806391d14854146101b6578063926d7d7f146101ed57600080fd5b8063248a9ca3116100bd578063248a9ca31461014a5780632f2ff15d1461017b57806336568abe1461019057600080fd5b806301ffc9a7146100e457806319860e031461010c5780631f2d006514610137575b600080fd5b6100f76100f2366004610abf565b610255565b60405190151581526020015b60405180910390f35b60035461011f906001600160a01b031681565b6040516001600160a01b039091168152602001610103565b60025461011f906001600160a01b031681565b61016d610158366004610a7c565b60009081526020819052604090206001015490565b604051908152602001610103565b61018e610189366004610a94565b6102be565b005b61018e61019e366004610a94565b6102e9565b61018e6101b1366004610a33565b61037a565b6100f76101c4366004610a94565b6000918252602082815260408084206001600160a01b0393909316845291905290205460ff1690565b61016d7fe2b7fb3b832174769106daebcfd6d1970523240dda11281102db9363b83b0dc481565b61016d600081565b61018e61022a3660046109bf565b61042b565b60015461011f906001600160a01b031681565b61018e610250366004610a94565b6105b4565b60006001600160e01b031982167f7965db0b0000000000000000000000000000000000000000000000000000000014806102b857507f01ffc9a7000000000000000000000000000000000000000000000000000000006001600160e01b03198316145b92915050565b6000828152602081905260409020600101546102da81336105da565b6102e48383610658565b505050565b6001600160a01b038116331461036c5760405162461bcd60e51b815260206004820152602f60248201527f416363657373436f6e74726f6c3a2063616e206f6e6c792072656e6f756e636560448201527f20726f6c657320666f722073656c66000000000000000000000000000000000060648201526084015b60405180910390fd5b61037682826106f6565b5050565b600061038681336105da565b6002546040517fa9059cbb0000000000000000000000000000000000000000000000000000000081526001600160a01b038581166004830152602482018590529091169063a9059cbb90604401602060405180830381600087803b1580156103ed57600080fd5b505af1158015610401573d6000803e3d6000fd5b505050506040513d601f19601f820116820180604052508101906104259190610a5c565b50505050565b7fe2b7fb3b832174769106daebcfd6d1970523240dda11281102db9363b83b0dc461045681336105da565b6002546001600160a01b031663ef55bec68930896000898961047b60208b018b610ae7565b604080516001600160e01b031960e08b901b1681526001600160a01b03988916600482015297909616602488015260448701949094526064860192909252608485015260a484015260ff1660c4830152602086013560e483015285013561010482015261012401600060405180830381600087803b1580156104fc57600080fd5b505af1158015610510573d6000803e3d6000fd5b50506001546002546001600160a01b03918216935063e3dec8fb92508a9116610539898b610c34565b60405160200161054b91815260200190565b6040516020818303038152906040526040518463ffffffff1660e01b815260040161057893929190610bb5565b600060405180830381600087803b15801561059257600080fd5b505af11580156105a6573d6000803e3d6000fd5b505050505050505050505050565b6000828152602081905260409020600101546105d081336105da565b6102e483836106f6565b6000828152602081815260408083206001600160a01b038516845290915290205460ff1661037657610616816001600160a01b03166014610775565b610621836020610775565b604051602001610632929190610b34565b60408051601f198184030181529082905262461bcd60e51b825261036391600401610bea565b6000828152602081815260408083206001600160a01b038516845290915290205460ff16610376576000828152602081815260408083206001600160a01b03851684529091529020805460ff191660011790556106b23390565b6001600160a01b0316816001600160a01b0316837f2f8788117e7eff1d82e926ec794901d17c78024a50270940304540a733656f0d60405160405180910390a45050565b6000828152602081815260408083206001600160a01b038516845290915290205460ff1615610376576000828152602081815260408083206001600160a01b0385168085529252808320805460ff1916905551339285917ff6391f5c32d9c69d2a47ea670b442974b53935d1edc7fd64eb21e047a839171b9190a45050565b60606000610784836002610c15565b61078f906002610bfd565b67ffffffffffffffff8111156107b557634e487b7160e01b600052604160045260246000fd5b6040519080825280601f01601f1916602001820160405280156107df576020820181803683370190505b5090507f30000000000000000000000000000000000000000000000000000000000000008160008151811061082457634e487b7160e01b600052603260045260246000fd5b60200101906001600160f81b031916908160001a9053507f78000000000000000000000000000000000000000000000000000000000000008160018151811061087d57634e487b7160e01b600052603260045260246000fd5b60200101906001600160f81b031916908160001a90535060006108a1846002610c15565b6108ac906001610bfd565b90505b600181111561094d577f303132333435363738396162636465660000000000000000000000000000000085600f16601081106108fb57634e487b7160e01b600052603260045260246000fd5b1a60f81b82828151811061091f57634e487b7160e01b600052603260045260246000fd5b60200101906001600160f81b031916908160001a90535060049490941c9361094681610c77565b90506108af565b50831561099c5760405162461bcd60e51b815260206004820181905260248201527f537472696e67733a20686578206c656e67746820696e73756666696369656e746044820152606401610363565b9392505050565b80356001600160a01b03811681146109ba57600080fd5b919050565b60008060008060008060008789036101208112156109db578384fd5b6109e4896109a3565b97506109f260208a016109a3565b9650604089013595506060808a0135955060808a0135945060a08a0135935060bf1982011215610a20578182fd5b5060c08801905092959891949750929550565b60008060408385031215610a45578182fd5b610a4e836109a3565b946020939093013593505050565b600060208284031215610a6d578081fd5b8151801515811461099c578182fd5b600060208284031215610a8d578081fd5b5035919050565b60008060408385031215610aa6578182fd5b82359150610ab6602084016109a3565b90509250929050565b600060208284031215610ad0578081fd5b81356001600160e01b03198116811461099c578182fd5b600060208284031215610af8578081fd5b813560ff8116811461099c578182fd5b60008151808452610b20816020860160208601610c4b565b601f01601f19169290920160200192915050565b7f416363657373436f6e74726f6c3a206163636f756e7420000000000000000000815260008351610b6c816017850160208801610c4b565b7f206973206d697373696e6720726f6c65200000000000000000000000000000006017918401918201528351610ba9816028840160208801610c4b565b01602801949350505050565b60006001600160a01b03808616835280851660208401525060606040830152610be16060830184610b08565b95945050505050565b60208152600061099c6020830184610b08565b60008219821115610c1057610c10610c8e565b500190565b6000816000190483118215151615610c2f57610c2f610c8e565b500290565b600082821015610c4657610c46610c8e565b500390565b60005b83811015610c66578181015183820152602001610c4e565b838111156104255750506000910152565b600081610c8657610c86610c8e565b506000190190565b634e487b7160e01b600052601160045260246000fdfea2646970667358221220b75820e1283c82fcf1d674d7a15d62e660d2a79904992f69c585208153f6453564736f6c63430008040033",
  "devdoc": {
    "kind": "dev",
    "methods": {
      "deposit(address,address,uint256,uint256,uint256,bytes32,(uint8,bytes32,bytes32))": {
        "details": "deposit funds to Matic. Since this is expected to be called in a meta transaction and `IRootChainManager.depositFor` relies on msg.sender, we transfer funds to this contract and then `depositFor` on this contract to the `depositRecipient` on matic. Note: RootChainManager has an `executeMetaTransaction` function but this method to deposit uses less gas.",
        "params": {
          "depositRecipient": "- the address to receive the deposit on matic",
          "fee": "- the fee to pay for gas.",
          "from": "- the address executing the deposit",
          "nonce": "- a unique random nonce for the deposit (NOT a sequential nonce see      https://eips.ethereum.org/EIPS/eip-3009#unique-random-nonce-instead-of-sequential-nonce)",
          "receiveSig": "- the EIP712 signature for `IERC20WithEIP3009.receiveWithAuthorization`",
          "totalValue": "- the amount to deposit",
          "validBefore": "- the deadline for executing the deposit"
        }
      },
      "getRoleAdmin(bytes32)": {
        "details": "Returns the admin role that controls `role`. See {grantRole} and {revokeRole}. To change a role's admin, use {_setRoleAdmin}."
      },
      "grantRole(bytes32,address)": {
        "details": "Grants `role` to `account`. If `account` had not been already granted `role`, emits a {RoleGranted} event. Requirements: - the caller must have ``role``'s admin role."
      },
      "hasRole(bytes32,address)": {
        "details": "Returns `true` if `account` has been granted `role`."
      },
      "renounceRole(bytes32,address)": {
        "details": "Revokes `role` from the calling account. Roles are often managed via {grantRole} and {revokeRole}: this function's purpose is to provide a mechanism for accounts to lose their privileges if they are compromised (such as when a trusted device is misplaced). If the calling account had been granted `role`, emits a {RoleRevoked} event. Requirements: - the caller must be `account`."
      },
      "revokeRole(bytes32,address)": {
        "details": "Revokes `role` from `account`. If `account` had been granted `role`, emits a {RoleRevoked} event. Requirements: - the caller must have ``role``'s admin role."
      },
      "supportsInterface(bytes4)": {
        "details": "See {IERC165-supportsInterface}."
      }
    },
    "version": 1
  },
  "userdoc": {
    "kind": "user",
    "methods": {},
    "version": 1
  },
  "storageLayout": {
    "storage": [
      {
        "astId": 62,
        "contract": "contracts/DepositRouter.sol:DepositRouter",
        "label": "_roles",
        "offset": 0,
        "slot": "0",
        "type": "t_mapping(t_bytes32,t_struct(RoleData)57_storage)"
      },
      {
        "astId": 637,
        "contract": "contracts/DepositRouter.sol:DepositRouter",
        "label": "rootChainManager",
        "offset": 0,
        "slot": "1",
        "type": "t_contract(IRootChainManager)849"
      },
      {
        "astId": 640,
        "contract": "contracts/DepositRouter.sol:DepositRouter",
        "label": "rootToken",
        "offset": 0,
        "slot": "2",
        "type": "t_contract(IERC20WithEIP3009)837"
      },
      {
        "astId": 642,
        "contract": "contracts/DepositRouter.sol:DepositRouter",
        "label": "predicateContract",
        "offset": 0,
        "slot": "3",
        "type": "t_address"
      }
    ],
    "types": {
      "t_address": {
        "encoding": "inplace",
        "label": "address",
        "numberOfBytes": "20"
      },
      "t_bool": {
        "encoding": "inplace",
        "label": "bool",
        "numberOfBytes": "1"
      },
      "t_bytes32": {
        "encoding": "inplace",
        "label": "bytes32",
        "numberOfBytes": "32"
      },
      "t_contract(IERC20WithEIP3009)837": {
        "encoding": "inplace",
        "label": "contract IERC20WithEIP3009",
        "numberOfBytes": "20"
      },
      "t_contract(IRootChainManager)849": {
        "encoding": "inplace",
        "label": "contract IRootChainManager",
        "numberOfBytes": "20"
      },
      "t_mapping(t_address,t_bool)": {
        "encoding": "mapping",
        "key": "t_address",
        "label": "mapping(address => bool)",
        "numberOfBytes": "32",
        "value": "t_bool"
      },
      "t_mapping(t_bytes32,t_struct(RoleData)57_storage)": {
        "encoding": "mapping",
        "key": "t_bytes32",
        "label": "mapping(bytes32 => struct AccessControl.RoleData)",
        "numberOfBytes": "32",
        "value": "t_struct(RoleData)57_storage"
      },
      "t_struct(RoleData)57_storage": {
        "encoding": "inplace",
        "label": "struct AccessControl.RoleData",
        "members": [
          {
            "astId": 54,
            "contract": "contracts/DepositRouter.sol:DepositRouter",
            "label": "members",
            "offset": 0,
            "slot": "0",
            "type": "t_mapping(t_address,t_bool)"
          },
          {
            "astId": 56,
            "contract": "contracts/DepositRouter.sol:DepositRouter",
            "label": "adminRole",
            "offset": 0,
            "slot": "1",
            "type": "t_bytes32"
          }
        ],
        "numberOfBytes": "64"
      }
    }
  }
}