{
  "address": "0x560bf25650E1a692E18d9F9b0791A69a2d8b2c91",
  "abi": [
    {
      "inputs": [
        {
          "internalType": "contract IERC20WithEIP3009",
          "name": "_rootToken",
          "type": "address"
        },
        {
          "internalType": "contract IRootChainManager",
          "name": "_rootChainManager",
          "type": "address"
        },
        {
          "internalType": "address",
          "name": "_predicateContract",
          "type": "address"
        },
        {
          "internalType": "address",
          "name": "owner",
          "type": "address"
        },
        {
          "internalType": "uint256",
          "name": "_stakeAmount",
          "type": "uint256"
        }
      ],
      "stateMutability": "nonpayable",
      "type": "constructor"
    },
    {
      "anonymous": false,
      "inputs": [
        {
          "indexed": true,
          "internalType": "address",
          "name": "relayer",
          "type": "address"
        },
        {
          "indexed": true,
          "internalType": "address",
          "name": "depositor",
          "type": "address"
        },
        {
          "indexed": false,
          "internalType": "uint256",
          "name": "amount",
          "type": "uint256"
        },
        {
          "indexed": false,
          "internalType": "uint256",
          "name": "fee",
          "type": "uint256"
        }
      ],
      "name": "DepositRelayed",
      "type": "event"
    },
    {
      "anonymous": false,
      "inputs": [
        {
          "indexed": true,
          "internalType": "address",
          "name": "relay",
          "type": "address"
        },
        {
          "indexed": false,
          "internalType": "address",
          "name": "sender",
          "type": "address"
        }
      ],
      "name": "DeregisterRelay",
      "type": "event"
    },
    {
      "anonymous": false,
      "inputs": [
        {
          "indexed": true,
          "internalType": "address",
          "name": "previousOwner",
          "type": "address"
        },
        {
          "indexed": true,
          "internalType": "address",
          "name": "newOwner",
          "type": "address"
        }
      ],
      "name": "OwnershipTransferred",
      "type": "event"
    },
    {
      "anonymous": false,
      "inputs": [
        {
          "indexed": true,
          "internalType": "address",
          "name": "relay",
          "type": "address"
        },
        {
          "indexed": false,
          "internalType": "string",
          "name": "url",
          "type": "string"
        }
      ],
      "name": "RegisterRelay",
      "type": "event"
    },
    {
      "inputs": [],
      "name": "DEPOSIT_TYPEHASH",
      "outputs": [
        {
          "internalType": "bytes32",
          "name": "",
          "type": "bytes32"
        }
      ],
      "stateMutability": "view",
      "type": "function"
    },
    {
      "inputs": [],
      "name": "DOMAIN_TYPEHASH",
      "outputs": [
        {
          "internalType": "bytes32",
          "name": "",
          "type": "bytes32"
        }
      ],
      "stateMutability": "view",
      "type": "function"
    },
    {
      "inputs": [],
      "name": "NAME",
      "outputs": [
        {
          "internalType": "string",
          "name": "",
          "type": "string"
        }
      ],
      "stateMutability": "view",
      "type": "function"
    },
    {
      "inputs": [
        {
          "internalType": "address",
          "name": "relay",
          "type": "address"
        }
      ],
      "name": "adminDeregister",
      "outputs": [],
      "stateMutability": "nonpayable",
      "type": "function"
    },
    {
      "inputs": [
        {
          "internalType": "address",
          "name": "to",
          "type": "address"
        },
        {
          "internalType": "uint256",
          "name": "amount",
          "type": "uint256"
        }
      ],
      "name": "claimFees",
      "outputs": [],
      "stateMutability": "nonpayable",
      "type": "function"
    },
    {
      "inputs": [
        {
          "internalType": "address",
          "name": "from",
          "type": "address"
        },
        {
          "internalType": "address",
          "name": "depositRecipient",
          "type": "address"
        },
        {
          "internalType": "uint256",
          "name": "totalValue",
          "type": "uint256"
        },
        {
          "internalType": "uint256",
          "name": "fee",
          "type": "uint256"
        },
        {
          "internalType": "uint256",
          "name": "validBefore",
          "type": "uint256"
        },
        {
          "internalType": "bytes32",
          "name": "nonce",
          "type": "bytes32"
        },
        {
          "components": [
            {
              "internalType": "uint8",
              "name": "v",
              "type": "uint8"
            },
            {
              "internalType": "bytes32",
              "name": "r",
              "type": "bytes32"
            },
            {
              "internalType": "bytes32",
              "name": "s",
              "type": "bytes32"
            }
          ],
          "internalType": "struct DepositRouter.Sig",
          "name": "receiveSig",
          "type": "tuple"
        },
        {
          "components": [
            {
              "internalType": "uint8",
              "name": "v",
              "type": "uint8"
            },
            {
              "internalType": "bytes32",
              "name": "r",
              "type": "bytes32"
            },
            {
              "internalType": "bytes32",
              "name": "s",
              "type": "bytes32"
            }
          ],
          "internalType": "struct DepositRouter.Sig",
          "name": "depositSig",
          "type": "tuple"
        }
      ],
      "name": "deposit",
      "outputs": [],
      "stateMutability": "nonpayable",
      "type": "function"
    },
    {
      "inputs": [],
      "name": "deregister",
      "outputs": [],
      "stateMutability": "nonpayable",
      "type": "function"
    },
    {
      "inputs": [],
      "name": "domainSeparator",
      "outputs": [
        {
          "internalType": "bytes32",
          "name": "",
          "type": "bytes32"
        }
      ],
      "stateMutability": "view",
      "type": "function"
    },
    {
      "inputs": [
        {
          "internalType": "address",
          "name": "",
          "type": "address"
        }
      ],
      "name": "fees",
      "outputs": [
        {
          "internalType": "uint256",
          "name": "",
          "type": "uint256"
        }
      ],
      "stateMutability": "view",
      "type": "function"
    },
    {
      "inputs": [],
      "name": "getRelayers",
      "outputs": [
        {
          "internalType": "address[]",
          "name": "",
          "type": "address[]"
        }
      ],
      "stateMutability": "view",
      "type": "function"
    },
    {
      "inputs": [
        {
          "internalType": "address",
          "name": "maybeRelay",
          "type": "address"
        }
      ],
      "name": "isRegistered",
      "outputs": [
        {
          "internalType": "bool",
          "name": "",
          "type": "bool"
        }
      ],
      "stateMutability": "view",
      "type": "function"
    },
    {
      "inputs": [
        {
          "internalType": "address",
          "name": "",
          "type": "address"
        }
      ],
      "name": "nonces",
      "outputs": [
        {
          "internalType": "uint256",
          "name": "",
          "type": "uint256"
        }
      ],
      "stateMutability": "view",
      "type": "function"
    },
    {
      "inputs": [],
      "name": "owner",
      "outputs": [
        {
          "internalType": "address",
          "name": "",
          "type": "address"
        }
      ],
      "stateMutability": "view",
      "type": "function"
    },
    {
      "inputs": [],
      "name": "predicateContract",
      "outputs": [
        {
          "internalType": "address",
          "name": "",
          "type": "address"
        }
      ],
      "stateMutability": "view",
      "type": "function"
    },
    {
      "inputs": [
        {
          "internalType": "string",
          "name": "url",
          "type": "string"
        }
      ],
      "name": "register",
      "outputs": [],
      "stateMutability": "payable",
      "type": "function"
    },
    {
      "inputs": [
        {
          "internalType": "address",
          "name": "",
          "type": "address"
        }
      ],
      "name": "relayerStake",
      "outputs": [
        {
          "internalType": "uint256",
          "name": "",
          "type": "uint256"
        }
      ],
      "stateMutability": "view",
      "type": "function"
    },
    {
      "inputs": [
        {
          "internalType": "address",
          "name": "",
          "type": "address"
        }
      ],
      "name": "relayerUrl",
      "outputs": [
        {
          "internalType": "string",
          "name": "",
          "type": "string"
        }
      ],
      "stateMutability": "view",
      "type": "function"
    },
    {
      "inputs": [],
      "name": "renounceOwnership",
      "outputs": [],
      "stateMutability": "nonpayable",
      "type": "function"
    },
    {
      "inputs": [],
      "name": "rootChainManager",
      "outputs": [
        {
          "internalType": "contract IRootChainManager",
          "name": "",
          "type": "address"
        }
      ],
      "stateMutability": "view",
      "type": "function"
    },
    {
      "inputs": [],
      "name": "rootToken",
      "outputs": [
        {
          "internalType": "contract IERC20WithEIP3009",
          "name": "",
          "type": "address"
        }
      ],
      "stateMutability": "view",
      "type": "function"
    },
    {
      "inputs": [
        {
          "internalType": "uint256",
          "name": "newAmount",
          "type": "uint256"
        }
      ],
      "name": "setStakeAmount",
      "outputs": [],
      "stateMutability": "nonpayable",
      "type": "function"
    },
    {
      "inputs": [],
      "name": "stakeAmount",
      "outputs": [
        {
          "internalType": "uint256",
          "name": "",
          "type": "uint256"
        }
      ],
      "stateMutability": "view",
      "type": "function"
    },
    {
      "inputs": [
        {
          "internalType": "address",
          "name": "newOwner",
          "type": "address"
        }
      ],
      "name": "transferOwnership",
      "outputs": [],
      "stateMutability": "nonpayable",
      "type": "function"
    }
  ],
  "transactionHash": "0xaad54a9760b44cff9320d7856827ba3622a2d156545cc4569812360330535a0f",
  "args": [
    "0xA0b86991c6218b36c1d19D4a2e9Eb0cE3606eB48",
    "0xA0c68C638235ee32657e8f720a23ceC1bFc77C77",
    "0x40ec5B33f54e0E8A33A975908C5BA1c14e5BbbDf",
    "0x1C35E441b21E528Dd8385Fd41d1578bE18E247D3",
    "10000000000000000"
  ],
  "solcInputHash": "1eef277538ba19f133fd761cab23f9fc",
  "bytecode": "0x60806040523480156200001157600080fd5b5060405162001e8938038062001e8983398101604081905262000034916200030c565b6200003f33620001be565b60018055600380546001600160a01b038781166001600160a01b031992831681179093556002805488831690841617905560048054918716919092168117825560405163095ea7b360e01b815291820152600019602482015263095ea7b390604401602060405180830381600087803b158015620000bc57600080fd5b505af1158015620000d1573d6000803e3d6000fd5b505050506040513d601f19601f82011682018060405250810190620000f79190620002e3565b50600681905562000108826200020e565b5050604080518082018252601981527f506f6c796d61726b6574204465706f73697420526f757465720000000000000060209182015281517f8cad95687ba82c2ce50e74f7b754645e5117c3a5bec8151c0726d5857980a866818301527f0e1f681f0204effccee965e5545acd3aea2ecccaed49392914c1601d547080d681840152466060820152306080808301919091528351808303909101815260a09091019092528151910120600c555062000395915050565b600080546001600160a01b038381166001600160a01b0319831681178455604051919092169283917f8be0079c531659141344cd1fd0a4f28419497f9722a3daafe3b4186f6b6457e09190a35050565b6000546001600160a01b031633146200026e5760405162461bcd60e51b815260206004820181905260248201527f4f776e61626c653a2063616c6c6572206973206e6f7420746865206f776e657260448201526064015b60405180910390fd5b6001600160a01b038116620002d55760405162461bcd60e51b815260206004820152602660248201527f4f776e61626c653a206e6577206f776e657220697320746865207a65726f206160448201526564647265737360d01b606482015260840162000265565b620002e081620001be565b50565b600060208284031215620002f5578081fd5b8151801515811462000305578182fd5b9392505050565b600080600080600060a0868803121562000324578081fd5b855162000331816200037f565b602087015190955062000344816200037f565b604087015190945062000357816200037f565b60608701519093506200036a816200037f565b80925050608086015190509295509295909350565b6001600160a01b0381168114620002e057600080fd5b611ae480620003a56000396000f3fe6080604052600436106101805760003560e01c80638da5cb5b116100d6578063c3c5a5471161007f578063f2fde38b11610059578063f2fde38b14610491578063f698da25146104b1578063faaebd21146104c757600080fd5b8063c3c5a5471461042e578063ef7b8bf81461045e578063f2c298be1461047e57600080fd5b8063aff5edb1116100b0578063aff5edb1146103d9578063bd07018d146103ee578063be09b8b51461040e57600080fd5b80638da5cb5b1461033857806392d7689514610356578063a3f4df7e1461038357600080fd5b806348825e941161013857806370ca825a1161011257806370ca825a146102d6578063715018a6146102f65780637ecebe001461030b57600080fd5b806348825e941461026c5780635c46ff99146102a057806360c7dc47146102c057600080fd5b80631f2d0065116101695780631f2d0065146101e857806320606b701461020857806343808c501461024a57600080fd5b8063179ff4b21461018557806319860e03146101b0575b600080fd5b34801561019157600080fd5b5061019a6104f4565b6040516101a7919061198a565b60405180910390f35b3480156101bc57600080fd5b506004546101d0906001600160a01b031681565b6040516001600160a01b0390911681526020016101a7565b3480156101f457600080fd5b506003546101d0906001600160a01b031681565b34801561021457600080fd5b5061023c7f8cad95687ba82c2ce50e74f7b754645e5117c3a5bec8151c0726d5857980a86681565b6040519081526020016101a7565b34801561025657600080fd5b5061026a6102653660046118da565b610505565b005b34801561027857600080fd5b5061023c7fa0d92e92a35b6c534af324315d68d0ec82faf9a7bb650b0c38137557a974447c81565b3480156102ac57600080fd5b5061026a6102bb366004611824565b610569565b3480156102cc57600080fd5b5061023c60065481565b3480156102e257600080fd5b5061026a6102f13660046117a7565b6106d0565b34801561030257600080fd5b5061026a610957565b34801561031757600080fd5b5061023c61032636600461178d565b600b6020526000908152604090205481565b34801561034457600080fd5b506000546001600160a01b03166101d0565b34801561036257600080fd5b5061023c61037136600461178d565b600a6020526000908152604090205481565b34801561038f57600080fd5b506103cc6040518060400160405280601981526020017f506f6c796d61726b6574204465706f73697420526f757465720000000000000081525081565b6040516101a79190611a06565b3480156103e557600080fd5b5061026a6109bd565b3480156103fa57600080fd5b506002546101d0906001600160a01b031681565b34801561041a57600080fd5b5061026a61042936600461178d565b6109c6565b34801561043a57600080fd5b5061044e61044936600461178d565b610a2c565b60405190151581526020016101a7565b34801561046a57600080fd5b506103cc61047936600461178d565b610a4e565b61026a61048c36600461186d565b610ae8565b34801561049d57600080fd5b5061026a6104ac36600461178d565b610dab565b3480156104bd57600080fd5b5061023c600c5481565b3480156104d357600080fd5b5061023c6104e236600461178d565b60056020526000908152604090205481565b60606105006007610e8a565b905090565b6000546001600160a01b031633146105645760405162461bcd60e51b815260206004820181905260248201527f4f776e61626c653a2063616c6c6572206973206e6f7420746865206f776e657260448201526064015b60405180910390fd5b600655565b336000908152600560205260409020548111156106155760405162461bcd60e51b8152602060048201526044602482018190527f4465706f736974526f757465723a3a636c61696d466565733a2063616e6e6f74908201527f20636c61696d206d6f72652066656573207468616e20746865206163636f757460648201527f2068617300000000000000000000000000000000000000000000000000000000608482015260a40161055b565b33600090815260056020526040908190208054839003905560035490517fa9059cbb0000000000000000000000000000000000000000000000000000000081526001600160a01b038481166004830152602482018490529091169063a9059cbb90604401602060405180830381600087803b15801561069357600080fd5b505af11580156106a7573d6000803e3d6000fd5b505050506040513d601f19601f820116820180604052508101906106cb919061184d565b505050565b336000908152600860205260409020546107525760405162461bcd60e51b815260206004820152603160248201527f4465706f736974526f757465723a3a6465706f7369743a2072656c617965722060448201527f6973206e6f742072656769737465726564000000000000000000000000000000606482015260840161055b565b61075e88888784610e9e565b6003546001600160a01b031663ef55bec68930896000898961078360208b018b6118f2565b604080517fffffffff0000000000000000000000000000000000000000000000000000000060e08b901b1681526001600160a01b03988916600482015297909616602488015260448701949094526064860192909252608485015260a484015260ff1660c4830152602086013560e483015285013561010482015261012401600060405180830381600087803b15801561081c57600080fd5b505af1158015610830573d6000803e3d6000fd5b50505050600085876108429190611a31565b60025460035460408051602080820186905282518083039091018152818301928390527fe3dec8fb000000000000000000000000000000000000000000000000000000009092529394506001600160a01b039283169363e3dec8fb936108af938e9391169160440161195e565b600060405180830381600087803b1580156108c957600080fd5b505af11580156108dd573d6000803e3d6000fd5b505033600090815260056020526040812080548a9450909250610901908490611a19565b909155505060408051828152602081018890526001600160a01b038b169133917fe017ffcfad08938f084f69e5f6c902c71f014a4e966d961d3a2d21c4b23e28ee910160405180910390a3505050505050505050565b6000546001600160a01b031633146109b15760405162461bcd60e51b815260206004820181905260248201527f4f776e61626c653a2063616c6c6572206973206e6f7420746865206f776e6572604482015260640161055b565b6109bb600061104b565b565b6109bb336110b3565b6000546001600160a01b03163314610a205760405162461bcd60e51b815260206004820181905260248201527f4f776e61626c653a2063616c6c6572206973206e6f7420746865206f776e6572604482015260640161055b565b610a29816110b3565b50565b6001600160a01b03811660009081526008602052604081205415155b92915050565b60096020526000908152604090208054610a6790611a48565b80601f0160208091040260200160405190810160405280929190818152602001828054610a9390611a48565b8015610ae05780601f10610ab557610100808354040283529160200191610ae0565b820191906000526020600020905b815481529060010190602001808311610ac357829003601f168201915b505050505081565b60026001541415610b3b5760405162461bcd60e51b815260206004820152601f60248201527f5265656e7472616e637947756172643a207265656e7472616e742063616c6c00604482015260640161055b565b60026001553360009081526008602052604090205415610bc35760405162461bcd60e51b815260206004820152603160248201527f4465706f736974526f757465723a3a72656769737465723a2072656c6179206160448201527f6c72656164792072656769737465726564000000000000000000000000000000606482015260840161055b565b600654341015610c3b5760405162461bcd60e51b815260206004820152603160248201527f4465706f736974526f757465723a72656769737465723a20696e73756666696360448201527f69656e74207374616b6520616d6f756e74000000000000000000000000000000606482015260840161055b565b600654336000908152600a602052604081208054909190610c5d908490611a19565b90915550610c6e90506007336112f0565b50336000908152600960205260409020610c8990838361168b565b50600654341115610d60576006546000903390610ca69034611a31565b604051600081818185875af1925050503d8060008114610ce2576040519150601f19603f3d011682016040523d82523d6000602084013e610ce7565b606091505b5050905080610d5e5760405162461bcd60e51b815260206004820152602660248201527f4465706f736974526f757465723a72656769737465723a20726566756e64206660448201527f61696c65642e0000000000000000000000000000000000000000000000000000606482015260840161055b565b505b336001600160a01b03167fb16283b75da46a2ae7a2aeda9af8df5483014d215c16d77175f2d196255ae7b68383604051610d9b9291906119d7565b60405180910390a2505060018055565b6000546001600160a01b03163314610e055760405162461bcd60e51b815260206004820181905260248201527f4f776e61626c653a2063616c6c6572206973206e6f7420746865206f776e6572604482015260640161055b565b6001600160a01b038116610e815760405162461bcd60e51b815260206004820152602660248201527f4f776e61626c653a206e6577206f776e657220697320746865207a65726f206160448201527f6464726573730000000000000000000000000000000000000000000000000000606482015260840161055b565b610a298161104b565b60606000610e9783611305565b9392505050565b6001600160a01b0384166000908152600b6020526040812080547fa0d92e92a35b6c534af324315d68d0ec82faf9a7bb650b0c38137557a974447c91869186913a919086610eeb83611a7d565b909155506040805160208101969096526001600160a01b03909416938501939093526060840191909152608083015260a082015260c0016040516020818303038152906040528051906020012090506000600c5482604051602001610f829291907f190100000000000000000000000000000000000000000000000000000000000081526002810192909252602282015260420190565b60408051601f1981840301815291905280516020918201209150610fbd908290610fae908601866118f2565b85602001358660400135611361565b6001600160a01b0316866001600160a01b0316146110435760405162461bcd60e51b815260206004820152603e60248201527f4465706f736974526f757465723a3a5f7665726966794465706f73697453696760448201527f3a20756e61626c6520746f20766572696679206465706f736974207369670000606482015260840161055b565b505050505050565b600080546001600160a01b038381167fffffffffffffffffffffffff0000000000000000000000000000000000000000831681178455604051919092169283917f8be0079c531659141344cd1fd0a4f28419497f9722a3daafe3b4186f6b6457e09190a35050565b600260015414156111065760405162461bcd60e51b815260206004820152601f60248201527f5265656e7472616e637947756172643a207265656e7472616e742063616c6c00604482015260640161055b565b60026001556001600160a01b0381166000908152600860205260409020546111965760405162461bcd60e51b815260206004820152603a60248201527f4465706f736974526f757465723a3a646572656769737465723a2072656c617960448201527f206973206e6f7420616c72656164792072656769737465726564000000000000606482015260840161055b565b6001600160a01b0381166000908152600a6020526040812080549190556111be60078361150a565b506001600160a01b03821660009081526009602052604081206111e09161170f565b6000826001600160a01b03168260405160006040518083038185875af1925050503d806000811461122d576040519150601f19603f3d011682016040523d82523d6000602084013e611232565b606091505b50509050806112a95760405162461bcd60e51b815260206004820152602e60248201527f4465706f736974526f757465723a3a646572656769737465723a20726566756e60448201527f64207374616b65206661696c6564000000000000000000000000000000000000606482015260840161055b565b6040513381526001600160a01b038416907f9713c9d5d29d52252ce91902b2eb466a55ebf1ee7e962795abca74391e6445369060200160405180910390a250506001805550565b6000610e97836001600160a01b03841661151f565b60608160000180548060200260200160405190810160405280929190818152602001828054801561135557602002820191906000526020600020905b815481526020019060010190808311611341575b50505050509050919050565b60007f7fffffffffffffffffffffffffffffff5d576e7357a4501ddfe92f46681b20a08211156113de5760405162461bcd60e51b815260206004820152602260248201527f45434453413a20696e76616c6964207369676e6174757265202773272076616c604482015261756560f01b606482015260840161055b565b8360ff16601b14806113f357508360ff16601c145b61144a5760405162461bcd60e51b815260206004820152602260248201527f45434453413a20696e76616c6964207369676e6174757265202776272076616c604482015261756560f01b606482015260840161055b565b6040805160008082526020820180845288905260ff871692820192909252606081018590526080810184905260019060a0016020604051602081039080840390855afa15801561149e573d6000803e3d6000fd5b5050604051601f1901519150506001600160a01b0381166115015760405162461bcd60e51b815260206004820152601860248201527f45434453413a20696e76616c6964207369676e61747572650000000000000000604482015260640161055b565b95945050505050565b6000610e97836001600160a01b03841661156e565b600081815260018301602052604081205461156657508154600181810184556000848152602080822090930184905584548482528286019093526040902091909155610a48565b506000610a48565b60008181526001830160205260408120548015611681576000611592600183611a31565b85549091506000906115a690600190611a31565b90508181146116275760008660000182815481106115d457634e487b7160e01b600052603260045260246000fd5b906000526020600020015490508087600001848154811061160557634e487b7160e01b600052603260045260246000fd5b6000918252602080832090910192909255918252600188019052604090208390555b855486908061164657634e487b7160e01b600052603160045260246000fd5b600190038181906000526020600020016000905590558560010160008681526020019081526020016000206000905560019350505050610a48565b6000915050610a48565b82805461169790611a48565b90600052602060002090601f0160209004810192826116b957600085556116ff565b82601f106116d25782800160ff198235161785556116ff565b828001600101855582156116ff579182015b828111156116ff5782358255916020019190600101906116e4565b5061170b929150611745565b5090565b50805461171b90611a48565b6000825580601f1061172b575050565b601f016020900490600052602060002090810190610a2991905b5b8082111561170b5760008155600101611746565b80356001600160a01b038116811461177157600080fd5b919050565b600060608284031215611787578081fd5b50919050565b60006020828403121561179e578081fd5b610e978261175a565b600080600080600080600080610180898b0312156117c3578384fd5b6117cc8961175a565b97506117da60208a0161175a565b965060408901359550606089013594506080890135935060a089013592506118058a60c08b01611776565b91506118158a6101208b01611776565b90509295985092959890939650565b60008060408385031215611836578182fd5b61183f8361175a565b946020939093013593505050565b60006020828403121561185e578081fd5b81518015158114610e97578182fd5b6000806020838503121561187f578182fd5b823567ffffffffffffffff80821115611896578384fd5b818501915085601f8301126118a9578384fd5b8135818111156118b7578485fd5b8660208285010111156118c8578485fd5b60209290920196919550909350505050565b6000602082840312156118eb578081fd5b5035919050565b600060208284031215611903578081fd5b813560ff81168114610e97578182fd5b60008151808452815b818110156119385760208185018101518683018201520161191c565b818111156119495782602083870101525b50601f01601f19169290920160200192915050565b60006001600160a01b038086168352808516602084015250606060408301526115016060830184611913565b6020808252825182820181905260009190848201906040850190845b818110156119cb5783516001600160a01b0316835292840192918401916001016119a6565b50909695505050505050565b60208152816020820152818360408301376000818301604090810191909152601f909201601f19160101919050565b602081526000610e976020830184611913565b60008219821115611a2c57611a2c611a98565b500190565b600082821015611a4357611a43611a98565b500390565b600181811c90821680611a5c57607f821691505b6020821081141561178757634e487b7160e01b600052602260045260246000fd5b6000600019821415611a9157611a91611a98565b5060010190565b634e487b7160e01b600052601160045260246000fdfea2646970667358221220bc801ac94ea7755f5c35bbb99a5a0c8837a5f121a9144c188cfe7edb17b005a664736f6c63430008040033",
  "devdoc": {
    "kind": "dev",
    "methods": {
      "deposit(address,address,uint256,uint256,uint256,bytes32,(uint8,bytes32,bytes32),(uint8,bytes32,bytes32))": {
        "details": "deposit funds to Matic. Since this is expected to be called in a meta transaction and `IRootChainManager.depositFor` relies on msg.sender, we transfer funds to this contract and then `depositFor` on this contract to the `depositRecipient` on matic. Note: RootChainManager has an `executeMetaTransaction` function but this method to deposit uses less gas.",
        "params": {
          "depositRecipient": "- the address to receive the deposit on matic",
          "fee": "- the fee to pay for gas.",
          "from": "- the address executing the deposit",
          "nonce": "- a unique random nonce for the deposit (NOT a sequential nonce see      https://eips.ethereum.org/EIPS/eip-3009#unique-random-nonce-instead-of-sequential-nonce)",
          "receiveSig": "- the EIP712 signature for `IERC20WithEIP3009.receiveWithAuthorization`",
          "totalValue": "- the amount to deposit",
          "validBefore": "- the deadline for executing the deposit"
        }
      },
      "owner()": {
        "details": "Returns the address of the current owner."
      },
      "renounceOwnership()": {
        "details": "Leaves the contract without owner. It will not be possible to call `onlyOwner` functions anymore. Can only be called by the current owner. NOTE: Renouncing ownership will leave the contract without an owner, thereby removing any functionality that is only available to the owner."
      },
      "transferOwnership(address)": {
        "details": "Transfers ownership of the contract to a new account (`newOwner`). Can only be called by the current owner."
      }
    },
    "version": 1
  },
  "userdoc": {
    "kind": "user",
    "methods": {},
    "version": 1
  },
  "storageLayout": {
    "storage": [
      {
        "astId": 7,
        "contract": "contracts/DepositRouter.sol:DepositRouter",
        "label": "_owner",
        "offset": 0,
        "slot": "0",
        "type": "t_address"
      },
      {
        "astId": 114,
        "contract": "contracts/DepositRouter.sol:DepositRouter",
        "label": "_status",
        "offset": 0,
        "slot": "1",
        "type": "t_uint256"
      },
      {
        "astId": 389,
        "contract": "contracts/DepositRouter.sol:DepositRouter",
        "label": "rootChainManager",
        "offset": 0,
        "slot": "2",
        "type": "t_contract(IRootChainManager)1548"
      },
      {
        "astId": 392,
        "contract": "contracts/DepositRouter.sol:DepositRouter",
        "label": "rootToken",
        "offset": 0,
        "slot": "3",
        "type": "t_contract(IERC20WithEIP3009)1536"
      },
      {
        "astId": 394,
        "contract": "contracts/DepositRouter.sol:DepositRouter",
        "label": "predicateContract",
        "offset": 0,
        "slot": "4",
        "type": "t_address"
      },
      {
        "astId": 398,
        "contract": "contracts/DepositRouter.sol:DepositRouter",
        "label": "fees",
        "offset": 0,
        "slot": "5",
        "type": "t_mapping(t_address,t_uint256)"
      },
      {
        "astId": 400,
        "contract": "contracts/DepositRouter.sol:DepositRouter",
        "label": "stakeAmount",
        "offset": 0,
        "slot": "6",
        "type": "t_uint256"
      },
      {
        "astId": 403,
        "contract": "contracts/DepositRouter.sol:DepositRouter",
        "label": "_relayers",
        "offset": 0,
        "slot": "7",
        "type": "t_struct(AddressSet)1207_storage"
      },
      {
        "astId": 407,
        "contract": "contracts/DepositRouter.sol:DepositRouter",
        "label": "relayerUrl",
        "offset": 0,
        "slot": "9",
        "type": "t_mapping(t_address,t_string_storage)"
      },
      {
        "astId": 411,
        "contract": "contracts/DepositRouter.sol:DepositRouter",
        "label": "relayerStake",
        "offset": 0,
        "slot": "10",
        "type": "t_mapping(t_address,t_uint256)"
      },
      {
        "astId": 415,
        "contract": "contracts/DepositRouter.sol:DepositRouter",
        "label": "nonces",
        "offset": 0,
        "slot": "11",
        "type": "t_mapping(t_address,t_uint256)"
      },
      {
        "astId": 417,
        "contract": "contracts/DepositRouter.sol:DepositRouter",
        "label": "domainSeparator",
        "offset": 0,
        "slot": "12",
        "type": "t_bytes32"
      }
    ],
    "types": {
      "t_address": {
        "encoding": "inplace",
        "label": "address",
        "numberOfBytes": "20"
      },
      "t_array(t_bytes32)dyn_storage": {
        "base": "t_bytes32",
        "encoding": "dynamic_array",
        "label": "bytes32[]",
        "numberOfBytes": "32"
      },
      "t_bytes32": {
        "encoding": "inplace",
        "label": "bytes32",
        "numberOfBytes": "32"
      },
      "t_contract(IERC20WithEIP3009)1536": {
        "encoding": "inplace",
        "label": "contract IERC20WithEIP3009",
        "numberOfBytes": "20"
      },
      "t_contract(IRootChainManager)1548": {
        "encoding": "inplace",
        "label": "contract IRootChainManager",
        "numberOfBytes": "20"
      },
      "t_mapping(t_address,t_string_storage)": {
        "encoding": "mapping",
        "key": "t_address",
        "label": "mapping(address => string)",
        "numberOfBytes": "32",
        "value": "t_string_storage"
      },
      "t_mapping(t_address,t_uint256)": {
        "encoding": "mapping",
        "key": "t_address",
        "label": "mapping(address => uint256)",
        "numberOfBytes": "32",
        "value": "t_uint256"
      },
      "t_mapping(t_bytes32,t_uint256)": {
        "encoding": "mapping",
        "key": "t_bytes32",
        "label": "mapping(bytes32 => uint256)",
        "numberOfBytes": "32",
        "value": "t_uint256"
      },
      "t_string_storage": {
        "encoding": "bytes",
        "label": "string",
        "numberOfBytes": "32"
      },
      "t_struct(AddressSet)1207_storage": {
        "encoding": "inplace",
        "label": "struct EnumerableSet.AddressSet",
        "members": [
          {
            "astId": 1206,
            "contract": "contracts/DepositRouter.sol:DepositRouter",
            "label": "_inner",
            "offset": 0,
            "slot": "0",
            "type": "t_struct(Set)906_storage"
          }
        ],
        "numberOfBytes": "64"
      },
      "t_struct(Set)906_storage": {
        "encoding": "inplace",
        "label": "struct EnumerableSet.Set",
        "members": [
          {
            "astId": 901,
            "contract": "contracts/DepositRouter.sol:DepositRouter",
            "label": "_values",
            "offset": 0,
            "slot": "0",
            "type": "t_array(t_bytes32)dyn_storage"
          },
          {
            "astId": 905,
            "contract": "contracts/DepositRouter.sol:DepositRouter",
            "label": "_indexes",
            "offset": 0,
            "slot": "1",
            "type": "t_mapping(t_bytes32,t_uint256)"
          }
        ],
        "numberOfBytes": "64"
      },
      "t_uint256": {
        "encoding": "inplace",
        "label": "uint256",
        "numberOfBytes": "32"
      }
    }
  }
}