{
  "address": "0x57209aDF4293d0A9210212aB48e9b337a5730879",
  "abi": [
    {
      "inputs": [
        {
          "internalType": "contract IERC20WithEIP3009",
          "name": "_rootToken",
          "type": "address"
        },
        {
          "internalType": "contract IRootChainManager",
          "name": "_rootChainManager",
          "type": "address"
        },
        {
          "internalType": "address",
          "name": "_predicateContract",
          "type": "address"
        },
        {
          "internalType": "address",
          "name": "owner",
          "type": "address"
        },
        {
          "internalType": "uint256",
          "name": "_stakeAmount",
          "type": "uint256"
        }
      ],
      "stateMutability": "nonpayable",
      "type": "constructor"
    },
    {
      "anonymous": false,
      "inputs": [
        {
          "indexed": true,
          "internalType": "address",
          "name": "relayer",
          "type": "address"
        },
        {
          "indexed": true,
          "internalType": "address",
          "name": "depositor",
          "type": "address"
        },
        {
          "indexed": false,
          "internalType": "uint256",
          "name": "amount",
          "type": "uint256"
        },
        {
          "indexed": false,
          "internalType": "uint256",
          "name": "fee",
          "type": "uint256"
        }
      ],
      "name": "DepositRelayed",
      "type": "event"
    },
    {
      "anonymous": false,
      "inputs": [
        {
          "indexed": true,
          "internalType": "address",
          "name": "relay",
          "type": "address"
        },
        {
          "indexed": false,
          "internalType": "address",
          "name": "sender",
          "type": "address"
        }
      ],
      "name": "DeregisterRelay",
      "type": "event"
    },
    {
      "anonymous": false,
      "inputs": [
        {
          "indexed": true,
          "internalType": "address",
          "name": "previousOwner",
          "type": "address"
        },
        {
          "indexed": true,
          "internalType": "address",
          "name": "newOwner",
          "type": "address"
        }
      ],
      "name": "OwnershipTransferred",
      "type": "event"
    },
    {
      "anonymous": false,
      "inputs": [
        {
          "indexed": true,
          "internalType": "address",
          "name": "relay",
          "type": "address"
        },
        {
          "indexed": false,
          "internalType": "string",
          "name": "url",
          "type": "string"
        }
      ],
      "name": "RegisterRelay",
      "type": "event"
    },
    {
      "inputs": [],
      "name": "DEPOSIT_TYPEHASH",
      "outputs": [
        {
          "internalType": "bytes32",
          "name": "",
          "type": "bytes32"
        }
      ],
      "stateMutability": "view",
      "type": "function"
    },
    {
      "inputs": [],
      "name": "DOMAIN_TYPEHASH",
      "outputs": [
        {
          "internalType": "bytes32",
          "name": "",
          "type": "bytes32"
        }
      ],
      "stateMutability": "view",
      "type": "function"
    },
    {
      "inputs": [],
      "name": "NAME",
      "outputs": [
        {
          "internalType": "string",
          "name": "",
          "type": "string"
        }
      ],
      "stateMutability": "view",
      "type": "function"
    },
    {
      "inputs": [
        {
          "internalType": "address",
          "name": "relay",
          "type": "address"
        }
      ],
      "name": "adminDeregister",
      "outputs": [],
      "stateMutability": "nonpayable",
      "type": "function"
    },
    {
      "inputs": [
        {
          "internalType": "address",
          "name": "to",
          "type": "address"
        },
        {
          "internalType": "uint256",
          "name": "amount",
          "type": "uint256"
        }
      ],
      "name": "claimFees",
      "outputs": [],
      "stateMutability": "nonpayable",
      "type": "function"
    },
    {
      "inputs": [
        {
          "internalType": "address",
          "name": "from",
          "type": "address"
        },
        {
          "internalType": "address",
          "name": "depositRecipient",
          "type": "address"
        },
        {
          "internalType": "uint256",
          "name": "totalValue",
          "type": "uint256"
        },
        {
          "internalType": "uint256",
          "name": "fee",
          "type": "uint256"
        },
        {
          "internalType": "uint256",
          "name": "validBefore",
          "type": "uint256"
        },
        {
          "internalType": "bytes32",
          "name": "nonce",
          "type": "bytes32"
        },
        {
          "components": [
            {
              "internalType": "uint8",
              "name": "v",
              "type": "uint8"
            },
            {
              "internalType": "bytes32",
              "name": "r",
              "type": "bytes32"
            },
            {
              "internalType": "bytes32",
              "name": "s",
              "type": "bytes32"
            }
          ],
          "internalType": "struct DepositRouter.Sig",
          "name": "receiveSig",
          "type": "tuple"
        },
        {
          "components": [
            {
              "internalType": "uint8",
              "name": "v",
              "type": "uint8"
            },
            {
              "internalType": "bytes32",
              "name": "r",
              "type": "bytes32"
            },
            {
              "internalType": "bytes32",
              "name": "s",
              "type": "bytes32"
            }
          ],
          "internalType": "struct DepositRouter.Sig",
          "name": "depositSig",
          "type": "tuple"
        }
      ],
      "name": "deposit",
      "outputs": [],
      "stateMutability": "nonpayable",
      "type": "function"
    },
    {
      "inputs": [],
      "name": "deregister",
      "outputs": [],
      "stateMutability": "nonpayable",
      "type": "function"
    },
    {
      "inputs": [],
      "name": "domainSeparator",
      "outputs": [
        {
          "internalType": "bytes32",
          "name": "",
          "type": "bytes32"
        }
      ],
      "stateMutability": "view",
      "type": "function"
    },
    {
      "inputs": [
        {
          "internalType": "address",
          "name": "",
          "type": "address"
        }
      ],
      "name": "fees",
      "outputs": [
        {
          "internalType": "uint256",
          "name": "",
          "type": "uint256"
        }
      ],
      "stateMutability": "view",
      "type": "function"
    },
    {
      "inputs": [],
      "name": "getRelayers",
      "outputs": [
        {
          "internalType": "address[]",
          "name": "",
          "type": "address[]"
        }
      ],
      "stateMutability": "view",
      "type": "function"
    },
    {
      "inputs": [],
      "name": "getRelayersWithUrls",
      "outputs": [
        {
          "internalType": "bytes[]",
          "name": "relayerInfo",
          "type": "bytes[]"
        }
      ],
      "stateMutability": "view",
      "type": "function"
    },
    {
      "inputs": [
        {
          "internalType": "address",
          "name": "maybeRelay",
          "type": "address"
        }
      ],
      "name": "isRegistered",
      "outputs": [
        {
          "internalType": "bool",
          "name": "",
          "type": "bool"
        }
      ],
      "stateMutability": "view",
      "type": "function"
    },
    {
      "inputs": [
        {
          "internalType": "address",
          "name": "",
          "type": "address"
        }
      ],
      "name": "nonces",
      "outputs": [
        {
          "internalType": "uint256",
          "name": "",
          "type": "uint256"
        }
      ],
      "stateMutability": "view",
      "type": "function"
    },
    {
      "inputs": [],
      "name": "owner",
      "outputs": [
        {
          "internalType": "address",
          "name": "",
          "type": "address"
        }
      ],
      "stateMutability": "view",
      "type": "function"
    },
    {
      "inputs": [],
      "name": "predicateContract",
      "outputs": [
        {
          "internalType": "address",
          "name": "",
          "type": "address"
        }
      ],
      "stateMutability": "view",
      "type": "function"
    },
    {
      "inputs": [
        {
          "internalType": "string",
          "name": "url",
          "type": "string"
        }
      ],
      "name": "register",
      "outputs": [],
      "stateMutability": "payable",
      "type": "function"
    },
    {
      "inputs": [
        {
          "internalType": "address",
          "name": "",
          "type": "address"
        }
      ],
      "name": "relayerStake",
      "outputs": [
        {
          "internalType": "uint256",
          "name": "",
          "type": "uint256"
        }
      ],
      "stateMutability": "view",
      "type": "function"
    },
    {
      "inputs": [
        {
          "internalType": "address",
          "name": "",
          "type": "address"
        }
      ],
      "name": "relayerUrl",
      "outputs": [
        {
          "internalType": "string",
          "name": "",
          "type": "string"
        }
      ],
      "stateMutability": "view",
      "type": "function"
    },
    {
      "inputs": [],
      "name": "renounceOwnership",
      "outputs": [],
      "stateMutability": "nonpayable",
      "type": "function"
    },
    {
      "inputs": [],
      "name": "rootChainManager",
      "outputs": [
        {
          "internalType": "contract IRootChainManager",
          "name": "",
          "type": "address"
        }
      ],
      "stateMutability": "view",
      "type": "function"
    },
    {
      "inputs": [],
      "name": "rootToken",
      "outputs": [
        {
          "internalType": "contract IERC20WithEIP3009",
          "name": "",
          "type": "address"
        }
      ],
      "stateMutability": "view",
      "type": "function"
    },
    {
      "inputs": [
        {
          "internalType": "uint256",
          "name": "newAmount",
          "type": "uint256"
        }
      ],
      "name": "setStakeAmount",
      "outputs": [],
      "stateMutability": "nonpayable",
      "type": "function"
    },
    {
      "inputs": [],
      "name": "stakeAmount",
      "outputs": [
        {
          "internalType": "uint256",
          "name": "",
          "type": "uint256"
        }
      ],
      "stateMutability": "view",
      "type": "function"
    },
    {
      "inputs": [
        {
          "internalType": "address",
          "name": "newOwner",
          "type": "address"
        }
      ],
      "name": "transferOwnership",
      "outputs": [],
      "stateMutability": "nonpayable",
      "type": "function"
    }
  ],
  "transactionHash": "0x184f5c1f1acb4dc08f69c41f2bbe5c99269a0d38a5bf69e74874f6ab17768abf",
  "args": [
    "0x6847E4fa1EE2Af7e2E62793CBdf4E39957c71C50",
    "0xBbD7cBFA79faee899Eaf900F13C9065bF03B1A74",
    "0xdD6596F2029e6233DEFfaCa316e6A95217d4Dc34",
    "0x1C35E441b21E528Dd8385Fd41d1578bE18E247D3",
    "10000000000000000"
  ],
  "solcInputHash": "5cd5c82f205be57b18dd35b78b8bf737",
  "bytecode": "0x60806040523480156200001157600080fd5b50604051620021273803806200212783398101604081905262000034916200030c565b6200003f33620001be565b60018055600380546001600160a01b038781166001600160a01b031992831681179093556002805488831690841617905560048054918716919092168117825560405163095ea7b360e01b815291820152600019602482015263095ea7b390604401602060405180830381600087803b158015620000bc57600080fd5b505af1158015620000d1573d6000803e3d6000fd5b505050506040513d601f19601f82011682018060405250810190620000f79190620002e3565b50600681905562000108826200020e565b5050604080518082018252601981527f506f6c796d61726b6574204465706f73697420526f757465720000000000000060209182015281517f8cad95687ba82c2ce50e74f7b754645e5117c3a5bec8151c0726d5857980a866818301527f0e1f681f0204effccee965e5545acd3aea2ecccaed49392914c1601d547080d681840152466060820152306080808301919091528351808303909101815260a09091019092528151910120600c555062000395915050565b600080546001600160a01b038381166001600160a01b0319831681178455604051919092169283917f8be0079c531659141344cd1fd0a4f28419497f9722a3daafe3b4186f6b6457e09190a35050565b6000546001600160a01b031633146200026e5760405162461bcd60e51b815260206004820181905260248201527f4f776e61626c653a2063616c6c6572206973206e6f7420746865206f776e657260448201526064015b60405180910390fd5b6001600160a01b038116620002d55760405162461bcd60e51b815260206004820152602660248201527f4f776e61626c653a206e6577206f776e657220697320746865207a65726f206160448201526564647265737360d01b606482015260840162000265565b620002e081620001be565b50565b600060208284031215620002f5578081fd5b8151801515811462000305578182fd5b9392505050565b600080600080600060a0868803121562000324578081fd5b855162000331816200037f565b602087015190955062000344816200037f565b604087015190945062000357816200037f565b60608701519093506200036a816200037f565b80925050608086015190509295509295909350565b6001600160a01b0381168114620002e057600080fd5b611d8280620003a56000396000f3fe60806040526004361061018b5760003560e01c806392d76895116100d6578063ed062b2c1161007f578063f2fde38b11610059578063f2fde38b146104be578063f698da25146104de578063faaebd21146104f457600080fd5b8063ed062b2c14610469578063ef7b8bf81461048b578063f2c298be146104ab57600080fd5b8063bd07018d116100b0578063bd07018d146103f9578063be09b8b514610419578063c3c5a5471461043957600080fd5b806392d7689514610361578063a3f4df7e1461038e578063aff5edb1146103e457600080fd5b80635c46ff9911610138578063715018a611610112578063715018a6146103015780637ecebe00146103165780638da5cb5b1461034357600080fd5b80635c46ff99146102ab57806360c7dc47146102cb57806370ca825a146102e157600080fd5b806320606b701161016957806320606b701461021357806343808c501461025557806348825e941461027757600080fd5b8063179ff4b21461019057806319860e03146101bb5780631f2d0065146101f3575b600080fd5b34801561019c57600080fd5b506101a5610521565b6040516101b29190611bc7565b60405180910390f35b3480156101c757600080fd5b506004546101db906001600160a01b031681565b6040516001600160a01b0390911681526020016101b2565b3480156101ff57600080fd5b506003546101db906001600160a01b031681565b34801561021f57600080fd5b506102477f8cad95687ba82c2ce50e74f7b754645e5117c3a5bec8151c0726d5857980a86681565b6040519081526020016101b2565b34801561026157600080fd5b50610275610270366004611a5f565b610532565b005b34801561028357600080fd5b506102477fc6cd4592639be33890c677244432074de73bcbe15a6ca6d45953ee26deed833f81565b3480156102b757600080fd5b506102756102c63660046119a9565b610596565b3480156102d757600080fd5b5061024760065481565b3480156102ed57600080fd5b506102756102fc36600461192c565b6106fd565b34801561030d57600080fd5b50610275610984565b34801561032257600080fd5b50610247610331366004611912565b600b6020526000908152604090205481565b34801561034f57600080fd5b506000546001600160a01b03166101db565b34801561036d57600080fd5b5061024761037c366004611912565b600a6020526000908152604090205481565b34801561039a57600080fd5b506103d76040518060400160405280601981526020017f506f6c796d61726b6574204465706f73697420526f757465720000000000000081525081565b6040516101b29190611ca4565b3480156103f057600080fd5b506102756109ea565b34801561040557600080fd5b506002546101db906001600160a01b031681565b34801561042557600080fd5b50610275610434366004611912565b6109f3565b34801561044557600080fd5b50610459610454366004611912565b610a59565b60405190151581526020016101b2565b34801561047557600080fd5b5061047e610a7b565b6040516101b29190611c14565b34801561049757600080fd5b506103d76104a6366004611912565b610b81565b6102756104b93660046119f2565b610c1b565b3480156104ca57600080fd5b506102756104d9366004611912565b610ede565b3480156104ea57600080fd5b50610247600c5481565b34801561050057600080fd5b5061024761050f366004611912565b60056020526000908152604090205481565b606061052d6007610fbd565b905090565b6000546001600160a01b031633146105915760405162461bcd60e51b815260206004820181905260248201527f4f776e61626c653a2063616c6c6572206973206e6f7420746865206f776e657260448201526064015b60405180910390fd5b600655565b336000908152600560205260409020548111156106425760405162461bcd60e51b8152602060048201526044602482018190527f4465706f736974526f757465723a3a636c61696d466565733a2063616e6e6f74908201527f20636c61696d206d6f72652066656573207468616e20746865206163636f757460648201527f2068617300000000000000000000000000000000000000000000000000000000608482015260a401610588565b33600090815260056020526040908190208054839003905560035490517fa9059cbb0000000000000000000000000000000000000000000000000000000081526001600160a01b038481166004830152602482018490529091169063a9059cbb90604401602060405180830381600087803b1580156106c057600080fd5b505af11580156106d4573d6000803e3d6000fd5b505050506040513d601f19601f820116820180604052508101906106f891906119d2565b505050565b3360009081526008602052604090205461077f5760405162461bcd60e51b815260206004820152603160248201527f4465706f736974526f757465723a3a6465706f7369743a2072656c617965722060448201527f6973206e6f7420726567697374657265640000000000000000000000000000006064820152608401610588565b61078b88888784610fd1565b6003546001600160a01b031663ef55bec6893089600089896107b060208b018b611a77565b604080517fffffffff0000000000000000000000000000000000000000000000000000000060e08b901b1681526001600160a01b03988916600482015297909616602488015260448701949094526064860192909252608485015260a484015260ff1660c4830152602086013560e483015285013561010482015261012401600060405180830381600087803b15801561084957600080fd5b505af115801561085d573d6000803e3d6000fd5b505050506000858761086f9190611ccf565b60025460035460408051602080820186905282518083039091018152818301928390527fe3dec8fb000000000000000000000000000000000000000000000000000000009092529394506001600160a01b039283169363e3dec8fb936108dc938e93911691604401611ae3565b600060405180830381600087803b1580156108f657600080fd5b505af115801561090a573d6000803e3d6000fd5b505033600090815260056020526040812080548a945090925061092e908490611cb7565b909155505060408051828152602081018890526001600160a01b038b169133917fe017ffcfad08938f084f69e5f6c902c71f014a4e966d961d3a2d21c4b23e28ee910160405180910390a3505050505050505050565b6000546001600160a01b031633146109de5760405162461bcd60e51b815260206004820181905260248201527f4f776e61626c653a2063616c6c6572206973206e6f7420746865206f776e65726044820152606401610588565b6109e86000611182565b565b6109e8336111ea565b6000546001600160a01b03163314610a4d5760405162461bcd60e51b815260206004820181905260248201527f4f776e61626c653a2063616c6c6572206973206e6f7420746865206f776e65726044820152606401610588565b610a56816111ea565b50565b6001600160a01b03811660009081526008602052604081205415155b92915050565b60606000610a896007611427565b90508067ffffffffffffffff811115610ab257634e487b7160e01b600052604160045260246000fd5b604051908082528060200260200182016040528015610ae557816020015b6060815260200190600190039081610ad05790505b50915060005b81811015610b7c576000610b00600783611431565b6001600160a01b0381166000908152600960209081526040918290209151929350610b2e9284929101611b0f565b604051602081830303815290604052848381518110610b5d57634e487b7160e01b600052603260045260246000fd5b6020026020010181905250508080610b7490611d1b565b915050610aeb565b505090565b60096020526000908152604090208054610b9a90611ce6565b80601f0160208091040260200160405190810160405280929190818152602001828054610bc690611ce6565b8015610c135780601f10610be857610100808354040283529160200191610c13565b820191906000526020600020905b815481529060010190602001808311610bf657829003601f168201915b505050505081565b60026001541415610c6e5760405162461bcd60e51b815260206004820152601f60248201527f5265656e7472616e637947756172643a207265656e7472616e742063616c6c006044820152606401610588565b60026001553360009081526008602052604090205415610cf65760405162461bcd60e51b815260206004820152603160248201527f4465706f736974526f757465723a3a72656769737465723a2072656c6179206160448201527f6c726561647920726567697374657265640000000000000000000000000000006064820152608401610588565b600654341015610d6e5760405162461bcd60e51b815260206004820152603160248201527f4465706f736974526f757465723a72656769737465723a20696e73756666696360448201527f69656e74207374616b6520616d6f756e740000000000000000000000000000006064820152608401610588565b600654336000908152600a602052604081208054909190610d90908490611cb7565b90915550610da1905060073361143d565b50336000908152600960205260409020610dbc908383611810565b50600654341115610e93576006546000903390610dd99034611ccf565b604051600081818185875af1925050503d8060008114610e15576040519150601f19603f3d011682016040523d82523d6000602084013e610e1a565b606091505b5050905080610e915760405162461bcd60e51b815260206004820152602660248201527f4465706f736974526f757465723a72656769737465723a20726566756e64206660448201527f61696c65642e00000000000000000000000000000000000000000000000000006064820152608401610588565b505b336001600160a01b03167fb16283b75da46a2ae7a2aeda9af8df5483014d215c16d77175f2d196255ae7b68383604051610ece929190611c75565b60405180910390a2505060018055565b6000546001600160a01b03163314610f385760405162461bcd60e51b815260206004820181905260248201527f4f776e61626c653a2063616c6c6572206973206e6f7420746865206f776e65726044820152606401610588565b6001600160a01b038116610fb45760405162461bcd60e51b815260206004820152602660248201527f4f776e61626c653a206e6577206f776e657220697320746865207a65726f206160448201527f64647265737300000000000000000000000000000000000000000000000000006064820152608401610588565b610a5681611182565b60606000610fca83611452565b9392505050565b6001600160a01b0384166000908152600b6020526040812080547fc6cd4592639be33890c677244432074de73bcbe15a6ca6d45953ee26deed833f913391879187913a918761101f83611d1b565b909155506040805160208101979097526001600160a01b0395861690870152939092166060850152608084015260a083015260c082015260e0016040516020818303038152906040528051906020012090506000600c54826040516020016110b99291907f190100000000000000000000000000000000000000000000000000000000000081526002810192909252602282015260420190565b60408051601f19818403018152919052805160209182012091506110f49082906110e590860186611a77565b856020013586604001356114ae565b6001600160a01b0316866001600160a01b03161461117a5760405162461bcd60e51b815260206004820152603e60248201527f4465706f736974526f757465723a3a5f7665726966794465706f73697453696760448201527f3a20756e61626c6520746f20766572696679206465706f7369742073696700006064820152608401610588565b505050505050565b600080546001600160a01b038381167fffffffffffffffffffffffff0000000000000000000000000000000000000000831681178455604051919092169283917f8be0079c531659141344cd1fd0a4f28419497f9722a3daafe3b4186f6b6457e09190a35050565b6002600154141561123d5760405162461bcd60e51b815260206004820152601f60248201527f5265656e7472616e637947756172643a207265656e7472616e742063616c6c006044820152606401610588565b60026001556001600160a01b0381166000908152600860205260409020546112cd5760405162461bcd60e51b815260206004820152603a60248201527f4465706f736974526f757465723a3a646572656769737465723a2072656c617960448201527f206973206e6f7420616c726561647920726567697374657265640000000000006064820152608401610588565b6001600160a01b0381166000908152600a6020526040812080549190556112f5600783611657565b506001600160a01b038216600090815260096020526040812061131791611894565b6000826001600160a01b03168260405160006040518083038185875af1925050503d8060008114611364576040519150601f19603f3d011682016040523d82523d6000602084013e611369565b606091505b50509050806113e05760405162461bcd60e51b815260206004820152602e60248201527f4465706f736974526f757465723a3a646572656769737465723a20726566756e60448201527f64207374616b65206661696c65640000000000000000000000000000000000006064820152608401610588565b6040513381526001600160a01b038416907f9713c9d5d29d52252ce91902b2eb466a55ebf1ee7e962795abca74391e6445369060200160405180910390a250506001805550565b6000610a75825490565b6000610fca838361166c565b6000610fca836001600160a01b0384166116a4565b6060816000018054806020026020016040519081016040528092919081815260200182805480156114a257602002820191906000526020600020905b81548152602001906001019080831161148e575b50505050509050919050565b60007f7fffffffffffffffffffffffffffffff5d576e7357a4501ddfe92f46681b20a082111561152b5760405162461bcd60e51b815260206004820152602260248201527f45434453413a20696e76616c6964207369676e6174757265202773272076616c604482015261756560f01b6064820152608401610588565b8360ff16601b148061154057508360ff16601c145b6115975760405162461bcd60e51b815260206004820152602260248201527f45434453413a20696e76616c6964207369676e6174757265202776272076616c604482015261756560f01b6064820152608401610588565b6040805160008082526020820180845288905260ff871692820192909252606081018590526080810184905260019060a0016020604051602081039080840390855afa1580156115eb573d6000803e3d6000fd5b5050604051601f1901519150506001600160a01b03811661164e5760405162461bcd60e51b815260206004820152601860248201527f45434453413a20696e76616c6964207369676e617475726500000000000000006044820152606401610588565b95945050505050565b6000610fca836001600160a01b0384166116f3565b600082600001828154811061169157634e487b7160e01b600052603260045260246000fd5b9060005260206000200154905092915050565b60008181526001830160205260408120546116eb57508154600181810184556000848152602080822090930184905584548482528286019093526040902091909155610a75565b506000610a75565b60008181526001830160205260408120548015611806576000611717600183611ccf565b855490915060009061172b90600190611ccf565b90508181146117ac57600086600001828154811061175957634e487b7160e01b600052603260045260246000fd5b906000526020600020015490508087600001848154811061178a57634e487b7160e01b600052603260045260246000fd5b6000918252602080832090910192909255918252600188019052604090208390555b85548690806117cb57634e487b7160e01b600052603160045260246000fd5b600190038181906000526020600020016000905590558560010160008681526020019081526020016000206000905560019350505050610a75565b6000915050610a75565b82805461181c90611ce6565b90600052602060002090601f01602090048101928261183e5760008555611884565b82601f106118575782800160ff19823516178555611884565b82800160010185558215611884579182015b82811115611884578235825591602001919060010190611869565b506118909291506118ca565b5090565b5080546118a090611ce6565b6000825580601f106118b0575050565b601f016020900490600052602060002090810190610a5691905b5b8082111561189057600081556001016118cb565b80356001600160a01b03811681146118f657600080fd5b919050565b60006060828403121561190c578081fd5b50919050565b600060208284031215611923578081fd5b610fca826118df565b600080600080600080600080610180898b031215611948578384fd5b611951896118df565b975061195f60208a016118df565b965060408901359550606089013594506080890135935060a0890135925061198a8a60c08b016118fb565b915061199a8a6101208b016118fb565b90509295985092959890939650565b600080604083850312156119bb578182fd5b6119c4836118df565b946020939093013593505050565b6000602082840312156119e3578081fd5b81518015158114610fca578182fd5b60008060208385031215611a04578182fd5b823567ffffffffffffffff80821115611a1b578384fd5b818501915085601f830112611a2e578384fd5b813581811115611a3c578485fd5b866020828501011115611a4d578485fd5b60209290920196919550909350505050565b600060208284031215611a70578081fd5b5035919050565b600060208284031215611a88578081fd5b813560ff81168114610fca578182fd5b60008151808452815b81811015611abd57602081850181015186830182015201611aa1565b81811115611ace5782602083870101525b50601f01601f19169290920160200192915050565b60006001600160a01b0380861683528085166020840152506060604083015261164e6060830184611a98565b6001600160a01b03831681526000602060408184015281845483600182811c915080831680611b3f57607f831692505b858310811415611b5d57634e487b7160e01b87526022600452602487fd5b6040880183905260608801818015611b7c5760018114611b8d57611bb7565b60ff19861682528782019650611bb7565b60008b815260209020895b86811015611bb157815484820152908501908901611b98565b83019750505b50949a9950505050505050505050565b6020808252825182820181905260009190848201906040850190845b81811015611c085783516001600160a01b031683529284019291840191600101611be3565b50909695505050505050565b6000602080830181845280855180835260408601915060408160051b8701019250838701855b82811015611c6857603f19888603018452611c56858351611a98565b94509285019290850190600101611c3a565b5092979650505050505050565b60208152816020820152818360408301376000818301604090810191909152601f909201601f19160101919050565b602081526000610fca6020830184611a98565b60008219821115611cca57611cca611d36565b500190565b600082821015611ce157611ce1611d36565b500390565b600181811c90821680611cfa57607f821691505b6020821081141561190c57634e487b7160e01b600052602260045260246000fd5b6000600019821415611d2f57611d2f611d36565b5060010190565b634e487b7160e01b600052601160045260246000fdfea264697066735822122010b63fb5180b148a15f8e748b86d479254cc49509196f69058b2569e29f814b564736f6c63430008040033",
  "devdoc": {
    "kind": "dev",
    "methods": {
      "deposit(address,address,uint256,uint256,uint256,bytes32,(uint8,bytes32,bytes32),(uint8,bytes32,bytes32))": {
        "details": "deposit funds to Matic. Since this is expected to be called in a meta transaction and `IRootChainManager.depositFor` relies on msg.sender, we transfer funds to this contract and then `depositFor` on this contract to the `depositRecipient` on matic. Note: RootChainManager has an `executeMetaTransaction` function but this method to deposit uses less gas.",
        "params": {
          "depositRecipient": "- the address to receive the deposit on matic",
          "fee": "- the fee to pay for gas.",
          "from": "- the address executing the deposit",
          "nonce": "- a unique random nonce for the deposit (NOT a sequential nonce see      https://eips.ethereum.org/EIPS/eip-3009#unique-random-nonce-instead-of-sequential-nonce)",
          "receiveSig": "- the EIP712 signature for `IERC20WithEIP3009.receiveWithAuthorization`",
          "totalValue": "- the amount to deposit",
          "validBefore": "- the deadline for executing the deposit"
        }
      },
      "owner()": {
        "details": "Returns the address of the current owner."
      },
      "renounceOwnership()": {
        "details": "Leaves the contract without owner. It will not be possible to call `onlyOwner` functions anymore. Can only be called by the current owner. NOTE: Renouncing ownership will leave the contract without an owner, thereby removing any functionality that is only available to the owner."
      },
      "transferOwnership(address)": {
        "details": "Transfers ownership of the contract to a new account (`newOwner`). Can only be called by the current owner."
      }
    },
    "version": 1
  },
  "userdoc": {
    "kind": "user",
    "methods": {},
    "version": 1
  },
  "storageLayout": {
    "storage": [
      {
        "astId": 7,
        "contract": "contracts/DepositRouter.sol:DepositRouter",
        "label": "_owner",
        "offset": 0,
        "slot": "0",
        "type": "t_address"
      },
      {
        "astId": 114,
        "contract": "contracts/DepositRouter.sol:DepositRouter",
        "label": "_status",
        "offset": 0,
        "slot": "1",
        "type": "t_uint256"
      },
      {
        "astId": 389,
        "contract": "contracts/DepositRouter.sol:DepositRouter",
        "label": "rootChainManager",
        "offset": 0,
        "slot": "2",
        "type": "t_contract(IRootChainManager)1602"
      },
      {
        "astId": 392,
        "contract": "contracts/DepositRouter.sol:DepositRouter",
        "label": "rootToken",
        "offset": 0,
        "slot": "3",
        "type": "t_contract(IERC20WithEIP3009)1590"
      },
      {
        "astId": 394,
        "contract": "contracts/DepositRouter.sol:DepositRouter",
        "label": "predicateContract",
        "offset": 0,
        "slot": "4",
        "type": "t_address"
      },
      {
        "astId": 398,
        "contract": "contracts/DepositRouter.sol:DepositRouter",
        "label": "fees",
        "offset": 0,
        "slot": "5",
        "type": "t_mapping(t_address,t_uint256)"
      },
      {
        "astId": 400,
        "contract": "contracts/DepositRouter.sol:DepositRouter",
        "label": "stakeAmount",
        "offset": 0,
        "slot": "6",
        "type": "t_uint256"
      },
      {
        "astId": 403,
        "contract": "contracts/DepositRouter.sol:DepositRouter",
        "label": "_relayers",
        "offset": 0,
        "slot": "7",
        "type": "t_struct(AddressSet)1261_storage"
      },
      {
        "astId": 407,
        "contract": "contracts/DepositRouter.sol:DepositRouter",
        "label": "relayerUrl",
        "offset": 0,
        "slot": "9",
        "type": "t_mapping(t_address,t_string_storage)"
      },
      {
        "astId": 411,
        "contract": "contracts/DepositRouter.sol:DepositRouter",
        "label": "relayerStake",
        "offset": 0,
        "slot": "10",
        "type": "t_mapping(t_address,t_uint256)"
      },
      {
        "astId": 415,
        "contract": "contracts/DepositRouter.sol:DepositRouter",
        "label": "nonces",
        "offset": 0,
        "slot": "11",
        "type": "t_mapping(t_address,t_uint256)"
      },
      {
        "astId": 417,
        "contract": "contracts/DepositRouter.sol:DepositRouter",
        "label": "domainSeparator",
        "offset": 0,
        "slot": "12",
        "type": "t_bytes32"
      }
    ],
    "types": {
      "t_address": {
        "encoding": "inplace",
        "label": "address",
        "numberOfBytes": "20"
      },
      "t_array(t_bytes32)dyn_storage": {
        "base": "t_bytes32",
        "encoding": "dynamic_array",
        "label": "bytes32[]",
        "numberOfBytes": "32"
      },
      "t_bytes32": {
        "encoding": "inplace",
        "label": "bytes32",
        "numberOfBytes": "32"
      },
      "t_contract(IERC20WithEIP3009)1590": {
        "encoding": "inplace",
        "label": "contract IERC20WithEIP3009",
        "numberOfBytes": "20"
      },
      "t_contract(IRootChainManager)1602": {
        "encoding": "inplace",
        "label": "contract IRootChainManager",
        "numberOfBytes": "20"
      },
      "t_mapping(t_address,t_string_storage)": {
        "encoding": "mapping",
        "key": "t_address",
        "label": "mapping(address => string)",
        "numberOfBytes": "32",
        "value": "t_string_storage"
      },
      "t_mapping(t_address,t_uint256)": {
        "encoding": "mapping",
        "key": "t_address",
        "label": "mapping(address => uint256)",
        "numberOfBytes": "32",
        "value": "t_uint256"
      },
      "t_mapping(t_bytes32,t_uint256)": {
        "encoding": "mapping",
        "key": "t_bytes32",
        "label": "mapping(bytes32 => uint256)",
        "numberOfBytes": "32",
        "value": "t_uint256"
      },
      "t_string_storage": {
        "encoding": "bytes",
        "label": "string",
        "numberOfBytes": "32"
      },
      "t_struct(AddressSet)1261_storage": {
        "encoding": "inplace",
        "label": "struct EnumerableSet.AddressSet",
        "members": [
          {
            "astId": 1260,
            "contract": "contracts/DepositRouter.sol:DepositRouter",
            "label": "_inner",
            "offset": 0,
            "slot": "0",
            "type": "t_struct(Set)960_storage"
          }
        ],
        "numberOfBytes": "64"
      },
      "t_struct(Set)960_storage": {
        "encoding": "inplace",
        "label": "struct EnumerableSet.Set",
        "members": [
          {
            "astId": 955,
            "contract": "contracts/DepositRouter.sol:DepositRouter",
            "label": "_values",
            "offset": 0,
            "slot": "0",
            "type": "t_array(t_bytes32)dyn_storage"
          },
          {
            "astId": 959,
            "contract": "contracts/DepositRouter.sol:DepositRouter",
            "label": "_indexes",
            "offset": 0,
            "slot": "1",
            "type": "t_mapping(t_bytes32,t_uint256)"
          }
        ],
        "numberOfBytes": "64"
      },
      "t_uint256": {
        "encoding": "inplace",
        "label": "uint256",
        "numberOfBytes": "32"
      }
    }
  }
}